:020000040800F2
:10000000A00700204D020008B1180008FD170008E5
:10001000AD18000845040008C51C000800000000D9
:10002000000000000000000000000000B9180008F7
:100030005504000800000000B5180008BD180008AD
:1000400067020008670200086702000867020008EC
:1000500067020008670200086702000867020008DC
:1000600067020008670200086702000867020008CC
:1000700067020008670200086702000867020008BC
:1000800067020008670200086702000867020008AC
:10009000670200086702000867020008670200089C
:1000A000670200086702000867020008670200088C
:1000B000670200086702000867020008670200087C
:1000C000670200086702000867020008670200086C
:1000D000670200086702000867020008670200085C
:1000E000670200086702000867020008670200084C
:1000F000670200086702000867020008670200083C
:10010000670200086702000867020008670200082B
:10011000670200086702000867020008670200081B
:100120006702000849040008670200086702000827
:1001300067020008670200086702000867020008FB
:1001400067020008670200086702000867020008EB
:10015000670200086702000867020008B91C00086F
:1001600067020008670200086702000867020008CB
:10017000670200086702000867020008000000002C
:1001800067020008670200086702000867020008AB
:10019000670200086702000867020008670200089B
:1001A00000000000000000006702000800F002F8F4
:1001B00000F03CF80AA090E8000C82448344AAF1C5
:1001C0000107DA4501D100F031F8AFF2090EBAE8C3
:1001D0000F0013F0010F18BFFB1A43F0010318477B
:1001E000DC1B0000FC1B0000103A24BF78C878C15B
:1001F000FAD8520724BF30C830C144BF04680C602D
:10020000704700000023002400250026103A28BF74
:1002100078C1FBD8520728BF30C148BF0B60704778
:100220001FB501F0AEFD1FBD10B510BD00F0D0F838
:100230001146FFF7F5FF01F047FD00F0EEF803B4BB
:10024000FFF7F2FF03BC00F0F5F800000948804713
:1002500009480047FEE7FEE7FEE7FEE7FEE7FEE7A8
:10026000FEE7FEE7FEE7FEE704480549054A064BC0
:1002700070470000C1180008AD010008A00100206F
:10028000A0070020A0030020A003002053EA020CD6
:1002900000F069802DE9F04B4FF00006002B1FBFE6
:1002A000B3FA83F503FA05F424FA05F65E4012BFAB
:1002B0001643B2FA82F502FA05F4C5F120051EBF15
:1002C00022FA05FC44EA0C04203556EA044C4FEAB5
:1002D000144418BF641C4FF000084FF0000990420E
:1002E00071EB030C39D3002919BFB1FA81F701FA78
:1002F00007F6B0FA80F700FA07F6C7F120071EBF2D
:1003000020FA07FC46EA0C062037B6FBF4FCA7EB04
:100310000507103F07F01F0BCBF120062CFA06F65D
:100320000CFA0BFB44BFB3460026202FA4BF5E4649
:100330004FF0000B5BEA060C08BF4FF0010B19EB06
:100340000B0948EB0608ABFB027C06FB02CC0BFB5F
:1003500003CCC01B71EB0C01C1E70B4602464146C2
:100360004846BDE8F08B13B5084318BF4FF0FF3087
:100370000146AFF30080BDE81C4070474FF000021B
:1003800000B5134694469646203922BFA0E80C508B
:10039000A0E80C50B1F12001BFF4F7AF090728BF66
:1003A000A0E80C5048BF0CC05DF804EB890028BFE2
:1003B00040F8042B08BF704748BF20F8022B11F00B
:1003C000804F18BF00F8012B704770477047704787
:1003D000754600F02BF8AE4605006946534620F0FE
:1003E0000700854618B020B5FFF73EFFBDE8204066
:1003F0004FF000064FF000074FF000084FF0000BE1
:10040000AC46ACE8C009ACE8C009ACE8C009ACE84F
:10041000C00921F007018D46704710B50446AFF3BF
:1004200000802046BDE81040FFF709BF0048704734
:100430001000002001491820ABBEFEE72600020094
:1004400070470000FEE7000040F2F000C2F200003A
:1004500000F04EB87047000072B600BFFEE7000023
:1004600070B5866D044600F0F9FA94F8351002294B
:1004700028D105462068216C026822F0160202602D
:10048000426922F08002426109B9A16C19B1016888
:1004900021F008010160016821F00101016000BF45
:1004A00020680068C00715D000F0D8FA401B062865
:1004B000F6D320206065032084F83500002184F8FD
:1004C000341070BD802060650120002184F8341054
:1004D00070BD00BFE06D3F2101FA00F0B060012067
:1004E00084F835000020002184F8341070BD00002D
:1004F000F0B581B004460020009040F20800C2F23E
:1005000000000268D4E9166048F2B5133768082184
:10051000C1F64E3381403942A2FB03250CD022683C
:1005200013685B0708D5136823F004031360B160F8
:10053000616D41F00101616501218140394208D0BE
:1005400022685269120604D5B160616D41F0020162
:10055000616504218140394208D0226812689207FF
:1005600004D5B160616D41F00401616510218140E5
:10057000394217D020680268120713D5B1600268AB
:100580000168520308D4C90508D4016821F00801A4
:100590000160216C21B905E008033FD4216C09B149
:1005A00020468847E16D202000FA01F23A4241D00E
:1005B00020680368DB063DD5B26094F835300268E8
:1005C000052B1BD122F016020260426922F0800244
:1005D0004261226C0AB9A26C1AB1026822F00802C8
:1005E00002603F208840B060012084F83500216D12
:1005F0000020002984F8340052D157E001685203EA
:1006000010D4C90512D4016821F010010160012045
:1006100084F83500002084F8340007E0A16C00293C
:10062000BED1BFE7080301D4616C00E0E16B09B102
:1006300020468847606DC8B3606DC0072ED0052086
:1006400084F835002068A90A026822F001020260DD
:10065000009A01328A4200921AD80268D20717D053
:10066000009A01328A42009212D80268D2070FD053
:10067000009A01328A4200920AD80268D20707D053
:10068000009A01328A42009202D80268D207DFD172
:10069000012084F83500002084F83400E16C29B191
:1006A000204601B0BDE8F040084700BF01B0F0BDF2
:1006B0002DE9F041044600F0D1F9ECB105460220E5
:1006C00084F835000020216884F83400086820F0A0
:1006D0000100086021680868C00711D000F0BEF969
:1006E000401B0528F6D9032520230320636584F8E1
:1006F0003550BDE8F08100BF0120BDE8F08100BFAA
:10070000086848F23F02CFF21002D4E9013500EA4E
:10071000020C04F10C0898E8C10143EA0C032B43D6
:100720001843D4E9072E304338431043626A40EA45
:100730000E00042A40EA08031CD1206BD4E90A2EDB
:1007400040EA0E00184308604869BEF1000F20F02F
:10075000030040EA020040F0040C11D0B8F5005F3D
:1007600036D0B8F1000F45D1022A46D0012A3BD03D
:1007700032B942E00B60486920F0070040EA020C01
:1007800001F0F8004AF6AB221038CAF6AA22A0FB04
:1007900002231A0941F6B453C0F600039A5C40F2F2
:1007A000FF335F284FF03F00C1F814C021EA030176
:1007B00000FA02F088BF0431C4E9161288600023F1
:1007C00001250020636584F83550BDE8F08100BF45
:1007D000032AD5D8012540230120DFE802F0030ECB
:1007E000030500BF82E700BFAEF1C070B0FA80F031
:1007F000400904E0032A04D3C2D1CEF300600028EC
:10080000BED0012540230120636584F83550BDE842
:10081000F081000070B590F834C0BCF1010F46D0F3
:100820004FF0010C80F834C0D0F858E090F835C093
:10083000BCF1010F38D14FF0020C80F835C04FF0F9
:10084000000CC0F854C0D0F800C08468056CC06DBE
:10085000DCF80060402C26F48026CCF80060CCF850
:1008600004300B4604BF13460A463F2101FA00F04C
:10087000CCF80830CCF80C20CEF80800DCF80000EA
:1008800040F01600CCF800002DB1DCF8000040F07C
:100890000800CCF80000DCF8000040F00100CCF8C3
:1008A0000000002070BD00BF002180F8341002203D
:1008B00070BD00002DE9F04F82B000F13E4242F2DF
:1008C000004502F1FF77C4F202050A2243F6004E0A
:1008D0004FEAB726A84208BF0922C4F2010E092E2A
:1008E00038BF4FEAB7220125002600274FF0000845
:1008F000009208E008F101080437B8F1100F06F182
:10090000020600F0A7800C6805FA08F914EA090F3E
:10091000F0D0D1F804B003220BF0030CACF10104C9
:10092000B240012C6FEA020A10D88268CC6802EA51
:100930000A02B440224382604268CBF3001422EAE8
:10094000090204FA08F42243426005E0BCF1030FF7
:1009500002D14FF0030C20E0C2688C6802EA0A0260
:10096000B4402243BCF1020FC26016D16FF0030203
:1009700002EA58020244D2F820C007F01C050F23F7
:100980000C69AB402CEA030304FA05F52B43136210
:10099000D1F804B001250BF0030C02680CFA06F341
:1009A00002EA0A021A431BF4403F0260A2D000226E
:1009B00043F644030192C4F202031A684FF6084C4E
:1009C00042F480421A601A68CFF6FF7C02F480423B
:1009D0000192019A28F00302724452F80C3007F099
:1009E0000C050F24AC40A343009C04FA05F52B43EF
:1009F00042F80C30DEF808204B6842EA090543F65D
:100A00000C4CDC0258BF22EA0905CEF80850C4F2AB
:100A1000010CDCF800209C0242EA090558BF22EADA
:100A20000905CCF80050DEF804209C0342EA0905D1
:100A300058BF22EA0905CEF80450DEF80020DB0397
:100A400042EA090558BF22EA0905CEF800500125FF
:100A500050E700BF02B0BDE8F08F000040F29810F0
:100A6000C2F2000000687047B0B50446006841F269
:100A70000041C4F20101884218BFB0BD204600F019
:100A8000B1FBE06B40F270050068C2F200054068FF
:100A90002946C0F1800082B22046642300F0F2FDB6
:100AA000204629468022BDE8B04000F037BD000056
:100AB00040F2000040F29811C2F20000C2F20001C0
:100AC00000780A68104408607047000080B543F65B
:100AD0000040C4F20200016841F400710160016845
:100AE00041F480610160016841F48071016003207C
:100AF00000F088F80F2000F005F800F027F800203B
:100B000080BD000070B540F20006C2F2000640F25F
:100B100008013278C2F200014FF47A730968B3FB1E
:100B2000F2F20446B1FBF2F1084600F043FB0F2C51
:100B30004FF0010508D838B94FF0FF3021460022A8
:100B4000002500F033F87460284670BD82B00020A4
:100B500043F640010190C4F202014A6842F4804227
:100B60004A604A6802F480420192019A0090086843
:100B700040F080500860086800F0805000900098B5
:100B800002B07047002848BF7047C1B200F01F0094
:100B9000012202FA00F04EF20012CEF2000242EA06
:100BA000D10121F0030108607047000010B54EF636
:100BB0000C5CCEF2000CDCF80030C3F3022E8EF099
:100BC0000704042C28BF0424BEF103034FF0FF3EAA
:100BD0000EFA04F438BF0023A14399400EFA03F340
:100BE0009A43114300F00F0200F160430901043AF7
:100BF00003F564436244002848BF02F10C031970F6
:100C000010BD00004EF60C51CEF200010A684FF6FE
:100C1000FF031A4060F30A2242F0806040F0FD704A
:100C2000086070472DE9F041002800F08B8043F602
:100C30000808C4F202080446D8F8F8030D4600F08C
:100C40000F00884207D288F8F853D8F8F80300F06C
:100C50000F00A84276D12068810717D5410705D536
:100C6000D8F8001041F4E051C8F80010010705D58C
:100C7000D8F8001041F46041C8F80010D8F800100E
:100C8000A26821F0F0011143C8F80010C0073FD15D
:100C9000D8F8F80300F00F00A84207D988F8F853F5
:100CA000D8F8F80300F00F00A8424BD120684107A4
:100CB00007D5D8F80010E26821F4E0511143C8F8D4
:100CC0000010000708D5D8F80000216920F4604022
:100CD00040EAC100C8F8000000F07CF8D8F8001025
:100CE00041F69C52C1F30311C0F60002515C40F280
:100CF000080220FA01F140F20400C2F2000000688C
:100D0000C2F200021160FFF7FDFE0020BDE8F08195
:100D10006068811E022907D258F8081C89015CBF4F
:100D20000120BDE8F08111E0012807D158F8081C26
:100D300089035CBF0120BDE8F08107E058F8081C7A
:100D4000890703D40120BDE8F08100BFD8F8001066
:100D500021F003010843C8F80000FFF77FFE0646B4
:100D600041F28837D8F80000616800F00C00B0EB61
:100D7000810F8DD0FFF772FE801BB842F2D903209D
:100D8000BDE8F08140F2080043F60801C2F200001D
:100D9000C4F202010068096841F6AC52C1F3822135
:100DA000C0F60002515CC8407047000040F20800E5
:100DB00043F60801C2F20000C4F2020100680968AB
:100DC00041F6AC52C1F34231C0F60002515CC8405A
:100DD0007047000010B543F60404C4F202046068D2
:100DE00000F00C0008280BD0042819BF42F2004084
:100DF000C0F2F40047F64000C0F27D1010BD00BF05
:100E0000206821682368490247F64001C0F27D113D
:100E100000F03F02C3F388105CBF42F20041C0F211
:100E2000F401A1FB00010023FFF730FA2168022240
:100E3000C1F3014102EB4101B0FBF1F010BD000034
:100E40002DE9F04182B0002868D00446007843F6CE
:100E50000006C007C4F202060BD0B06800F00C0018
:100E6000042840F09F803068800302D56068002825
:100E700054D0207880071AD5B06810F00C0F09D034
:100E8000B06800F00C00082840F0A68070684002AE
:100E900000F1A2803068800702D5E06801283DD1CA
:100EA0003068216920F0F80040EAC1003060207805
:100EB000000737D4207840074CD4A56955B3B068F3
:100EC00000F00C00082840F0BB80012D26D070688F
:100ED000E16900F480028A4220D1216A00F03F02D9
:100EE0008A421BD147F6C071626A0140B1EB821F92
:100EF00014D1A16A4FF6FF73C903994300F440323D
:100F0000A1F580318A4209D1E16A00F07060B0EB4E
:100F1000016F03D1002002B0BDE8F081012002B0D2
:100F2000BDE8F0816069002840F20000C4F247206B
:100F300076D00121C0F8801EFFF790FD054600BF66
:100F4000706F8007B6D4FFF789FD401B0228F7D9E0
:100F5000DDE000BF306C10F080580AD10020019015
:100F6000306C40F080503064306C00F08050019064
:100F7000019847F20007C4F200073868C00541D461
:100F8000386840F480703860FFF768FD054600BFA0
:100F90003868C00536D4FFF761FD401B0228F7D939
:100FA000B5E000BFB06800F00C00082803D17068FD
:100FB00040023FF558AF6068B0F5803F07D0B0F50C
:100FC000A02F40F08D80306840F480203060306881
:100FD00040F4803030608DE0E068002852D000207E
:100FE000C4F2472001210160FFF738FD054600BF2C
:100FF000306880073FF554AFFFF730FD401B0228F3
:10100000F6D984E0A068012805D005284ED1306FBC
:1010100040F004003067306F40F0010030674FE06F
:101020000021C0F8801EFFF719FD0546706F80078C
:101030007FF540AFFFF712FD401B0228F6D966E0AE
:101040000027C4F2472700203866FFF707FD022D6E
:1010500005460BD1306880015ED5FFF7FFFC401BD1
:1010600002284FF00300F5D955E700BF3068800132
:101070007FF550AFFFF7F2FC401B02284FF0030052
:10108000F4D948E70020C4F2472000210160FFF7AF
:10109000E5FC0546306880077FF509AFFFF7DEFC09
:1010A000401B02284FF00300F4D934E7316F0028C9
:1010B00021F001013167316F21F0040131674DD01A
:1010C000FFF7CCFC054641F2883700BF306F800740
:1010D00056D4FFF7C3FC401BB842F7D917E000BF56
:1010E0003168002821F480313160316821F4802199
:1010F00031604FD0FFF7B2FC054600BF3068800377
:101100003FF5B7AEFFF7AAFC401B6428F6D90320D1
:1011100002B0BDE8F08100BF04F11C052FCD0843EB
:1011200040EA8210D9034FF6FF729143A1F5803156
:1011300040EA05600843706001203866FFF78EFCC6
:10114000044600BF306880013FF5E4AEFFF786FC3F
:10115000001B02284FF00300F4D9DCE6FFF77EFC09
:10116000054641F2883700BF306F800708D5FFF78A
:1011700075FC401BB8424FF00300F5D9CBE600BF29
:10118000B8F1000F7FF499AE306C20F080503064DD
:1011900093E600BFFFF762FC054600BF306880039E
:1011A0007FF567AEFFF75AFC401B64284FF0030041
:1011B000F4D9B0E6411E0020B0EB116F1CBF012036
:1011C00070474EF21002CEF2000251604EF62351EB
:1011D000CEF20001F0230B70072190601160704780
:1011E0007047000010B504460068416994F841203A
:1011F000212A56D111F0800153D000BF206850E859
:10120000050F216820F0800041E80502DAB120686E
:1012100050E8050F216820F0800041E8050292B1F6
:10122000206850E8050F216820F0800041E80502A1
:101230004AB1206850E8050F216820F0800041E89D
:101240000502002ADAD1A06B002818BFFFF708F9C1
:10125000206850E8030F216820F0C00041E8030235
:10126000DAB1206850E8030F216820F0C00041E89F
:10127000030292B1206850E8030F216820F0C000FB
:1012800041E803024AB1206850E8030F216820F0CA
:10129000C00041E80302002ADAD1202084F841008E
:1012A0002068406994F84210222940F0A78010F08D
:1012B000400000F0A38000BF206850E8050F2168BF
:1012C00020F0400041E80502DAB1206850E8050F3F
:1012D000216820F0400041E8050292B1206850E802
:1012E000050F216820F0400041E805024AB120685E
:1012F00050E8050F216820F0400041E80502002A6F
:10130000DAD1E06B002818BFFFF7AAF8206850E890
:10131000030F216820F4907041E80302BAB32068FB
:1013200050E8030F216820F4907041E8030272B383
:10133000206850E8030F216820F4907041E8030210
:101340002AB3206850E8030F216820F4907041E828
:101350000302002ADAD11AE0206850E8050F21685C
:1013600020F0010041E80502DAB1206850E8050FDD
:10137000216820F0010041E8050292B1206850E8A0
:10138000050F216820F0010041E805024AB12068FC
:1013900050E8050F216820F0010041E80502002A0D
:1013A000DAD1206B012824D1206850E8030F21688E
:1013B00020F0100041E80302DAB1206850E8030F82
:1013C000216820F0100041E8030292B1206850E843
:1013D000030F216820F0100041E803024AB12068A1
:1013E00050E8030F216820F0100041E80302002AB2
:1013F000DAD1202084F8420000202063002010BDB4
:1014000070470000002804BF0120704710B5044653
:1014100090F8410028B9002084F84000204600F0F0
:1014200021F8242084F841002068C16821F400518B
:10143000C160204600F0C8FB2068016921F490419A
:101440000161416921F02A014161C16841F4005103
:10145000C16000202021606484F8411084F84210AB
:10146000606310BD70B586B00446016841F200406B
:10147000C4F20100814201D006B070BD002643F6DF
:1014800030010196C4F202014A6900F5823042F04F
:1014900020024A614A6902F020020192019A0196F3
:1014A0000A6842F040020A60096801F040010191B7
:1014B00001994FF4844101910221CDE902160321E3
:1014C00004910821059101A9FFF7F4F940F2F00514
:1014D00046F22840C2F20005C4F202004FF020613B
:1014E0004FF4806285E843002846C5E90362C5E9F8
:1014F0000566C5E907666E62FFF7DAF8002818BFCF
:10150000FEF7AAFF472000210022E563AC63FFF746
:101510004DFB4720FFF736FB06B070BD70B582B0BB
:10152000044690F8420020280AD113460A460029B2
:101530004FF0010018BF002B06D102B070BD00BFF4
:10154000022002B070BD00BF002622202663A262E6
:10155000A385666484F842002168E06B41F6512C53
:1015600041F6B13E41F6D505C0F6000CC0F6000EBE
:10157000C0F600050431C0E90FCEC0E91356FFF7ED
:1015800049F901962068016801914068019001982D
:10159000206928B3206850E8030F216840F4807068
:1015A00041E80302E2B1206850E8030F216840F4EB
:1015B000807041E803029AB1206850E8030F216867
:1015C00040F4807041E8030252B1206850E8030FF4
:1015D000216840F4807041E80302002ADAD100BF9C
:1015E000206850E8050F216840F0010041E805023D
:1015F000E2B1206850E8050F216840F0010041E8A1
:1016000005029AB1206850E8050F216840F00100FA
:1016100041E8050252B1206850E8050F216840F00A
:10162000010041E80502002ADAD100BF206850E835
:10163000050F216840F0400041E80502DAB120685A
:1016400050E8050F216840F0400041E8050292B1E2
:10165000206850E8050F216840F0400041E805028D
:101660004AB1206850E8050F216840F0400041E889
:101670000502002ADAD1002002B070BD70470000D8
:10168000704700002DE9F041044690F84100202801
:101690001CBF0220BDE8F0810D4600294FF001007B
:1016A00000F0AA801646002A08BFBDE8F08100209D
:1016B00060642120984684F84100FFF7CFF9A684A2
:1016C000E684A1680646B1F5805F02D12069002852
:1016D00062D02F460025E08C002861D018F101006F
:1016E00018D0B8F1000F37D1216808E017F8010BC6
:1016F0004860E08C0138E084E08C002851D0086814
:10170000000673D5002FF1D135F8020B00276FF3D7
:101710005F20EDE7216802E00868000609D4086848
:10172000000606D4086800065CBF08685FEA00602F
:10173000F2D51FB117F8010B05E000BF35F8020B19
:1017400000276FF35F204860E08C0138E084E08C74
:101750000028E4D125E000BF216800BF086800062A
:1017600008D4FFF77BF9801B404541D82168C86841
:10177000F4E700BF17B117F8010B04E035F8020BCE
:1017800000276FF35F204860E08C0138E084E08C34
:101790000028E3D105E000BF0027E08C00289DD1A0
:1017A0002168086840061FD4B8F1000F1ED018F158
:1017B00001000FD10868400616D40868400613D40B
:1017C0000868400610D4086840064FF00000F1D5C4
:1017D0000FE000BFFFF742F9801B404508D82068A2
:1017E000C16800684006F5D5002002E0FFF736F931
:1017F0000320202184F84110BDE8F081FEE70000BD
:1018000080B582B00020019043F63000C4F202009F
:101810000168002241F4800101600068002100F4A9
:101820008000019001983920FFF7C0F9392002B0FB
:10183000BDE88040FFF7A6B982B0002043F6300132
:101840000190C4F202010A6842F040020A600A688C
:1018500002F040020192019A0090086840F00100F5
:101860000860086800F001000090009802B070471E
:1018700080B540F2501041F20041C2F20000C4F2C3
:10188000010100234FF00C0C4FF4E13280E80E0010
:10189000C0E90333C0E905C3C361FFF7B3FD002806
:1018A00008BF80BDBDE88040FEF7D6BDFEE7000062
:1018B000FEE700007047000070470000FFF7F8B82F
:1018C0004EF68850CEF20000016841F470010160CC
:1018D00070470000806B01684A6990F84130212B05
:1018E0002DD112F080022AD00021C184016851E874
:1018F000031F026821F0C00142E80313DBB1016855
:1019000051E8031F026821F0C00142E8031393B1BC
:10191000016851E8031F026821F0C00142E8031387
:101920004BB1016851E8031F026821F0C00142E891
:101930000313002BDAD1202180F841100168496996
:1019400090F84220222A40F07D8011F0400179D0A9
:101950000021C185016851E8031F026821F49071DC
:1019600042E80313BBB3016851E8031F026821F486
:10197000907142E8031373B3016851E8031F0268D2
:1019800021F4907142E803132BB3016851E8031F5F
:10199000026821F4907142E80313002BDAD11AE0B7
:1019A000016851E8051F026821F0010142E80513B2
:1019B000DBB1016851E8051F026821F0010142E82E
:1019C000051393B1016851E8051F026821F0010178
:1019D00042E805134BB1016851E8051F026821F088
:1019E000010142E80513002BDAD1016B012924D152
:1019F000016851E8031F026821F0100142E8031357
:101A0000DBB1016851E8031F026821F0100142E8D0
:101A1000031393B1016851E8031F026821F010011C
:101A200042E803134BB1016851E8031F026821F03B
:101A3000100142E80313002BDAD1202180F8421074
:101A400000210163416C41F010014164FFF7D8BCF3
:101A50000168806B0968C90500F19F800021C1857C
:101A6000016851E8031F026821F4807142E8031302
:101A7000E3B1016851E8031F026821F4807142E874
:101A800003139BB1016851E8031F026821F48071C0
:101A900042E8031353B1016851E8031F026821F4BF
:101AA000807142E80313002BDAD100BF016851E8CE
:101AB000051F026821F0010142E80513BBB301686C
:101AC00051E8051F026821F0010142E8051373B3D4
:101AD000016851E8051F026821F0010142E8051381
:101AE0002BB3016851E8051F026821F0010142E8AB
:101AF0000513002BDAD11AE0016851E8051F0268CE
:101B000021F0400142E80513DBB1016851E8051FEF
:101B1000026821F0400142E8051393B1016851E8E1
:101B2000051F026821F0400142E805134BB101682E
:101B300051E8051F026821F0400142E80513002B1F
:101B4000DAD1202180F84210016B012925D100BF94
:101B5000016851E8031F026821F0100142E80313F5
:101B6000DBB1016851E8031F026821F0100142E86F
:101B7000031393B1016851E8031F026821F01001BB
:101B800042E803134BB1016851E8031F026821F0DA
:101B9000100142E80313002BDAD100214163016BED
:101BA000012918BFFFF76ABD818DFFF719BB00003F
:101BB000806B01214163016B012918BFFFF760BDF4
:101BC000818D4908FFF70CBB10B504460068D4E9C5
:101BD00002C22369016921F4405111430161626924
:101BE00043EA0C01E3691143C268194349F20C63EB
:101BF0009A431143C1604169A26921F4407141F2E5
:101C00000043114340F48062C4F201039A424161EF
:101C100002D1FFF7CBF801E0FFF7B4F8E1696368A0
:101C20001922B1F5004FA0FB020123D15A00DB0FAE
:101C3000FEF72CFB48F21F51C5F2EB11A0FB01236C
:101C40005A094FF69C73C0F6FF7303F1805302FBF1
:101C50000300322303EBC000A0FB01014FF4F87036
:101C600000EA111000EB0210C1F342110844216890
:101C7000886010BD9A009B0FFEF708FB48F21F51C9
:101C8000C5F2EB11A0FB01235A094FF69C73C0F675
:101C9000FF7302FB0300322303EB0010A0FB0101E2
:101CA000F02000EA511000EB0210C1F34311084488
:101CB0002168886010BD000040F25010C2F20000A0
:101CC000FEF7D2BEFEE7000092B0FEF7FFFE06ACC4
:101CD000201D2C21FEF752FB002543F64000059500
:101CE000CDE90355CDE901550095C4F20200016824
:101CF000012241F080510160006800F080500090A6
:101D0000009847F200000095C4F20000016862F3F9
:101D10008F310160006800F440400090009802207C
:101D2000069010200A90204609920C95FFF788F83B
:101D300010B172B6FEE700BF0F20CDE9010501A882
:101D40000021CDE903550595FEF76CFF10B172B681
:101D5000FEE700BFFFF770FDFFF752FDFFF788FDBC
:101D600040F25010C2F200000168CA6842F010024E
:101D7000CA6040F27001C2F200018022FFF7CEFB80
:101D8000FEE7F1EE100A4FF6FF71C0F2C03120EA13
:101D9000010040F04070E1EE100A704700000000C2
:101DA000000000000102030406070809000000000B
:101DB000010203040006101600061016E01D0008BC
:101DC0000000002010000000E8010008F01D0008DD
:101DD000100000209007000004020008000000002E
:101DE00001000000100000000024F40000000000CA
:04000005080001AD41
:00000001FF
