:020000040800F2
:100000005807002051020008051B0008451A000887
:10001000011B0008B10400082520000800000000B2
:100020000000000000000000000000000D1B0008A0
:10003000C104000800000000091B0008111B000893
:100040006B0200086B0200086B0200086B020008DC
:100050006B0200086B0200086B0200086B020008CC
:100060006B0200086B0200086B0200086B020008BC
:100070006B0200086B0200086B0200086B020008AC
:100080006B0200086B0200086B0200086B0200089C
:100090006B0200086B0200086B0200086B0200088C
:1000A0006B0200086B0200086B0200086B0200087C
:1000B0006B0200086B0200086B0200086B0200086C
:1000C0006B0200086B0200086B0200086B0200085C
:1000D0006B020008192000086B0200086B02000880
:1000E0006B0200086B0200086B0200086B0200083C
:1000F0006B0200086B0200086B0200086B0200082C
:100100006B0200086B0200086B0200086B0200081B
:100110006B0200086B0200086B0200086B0200080B
:100120006B0200086B020008B50400086B020008AF
:100130006B0200086B0200086B0200086B020008EB
:100140006B0200086B0200086B0200086B020008DB
:100150006B0200086B0200086B0200086B020008CB
:100160006B0200086B0200086B0200086B020008BB
:100170006B0200086B0200086B0200080000000020
:100180006B0200086B0200086B0200086B0200089B
:100190006B0200086B0200086B0200086B0200088B
:1001A00000000000000000006B02000800F002F8F0
:1001B00000F03EF80AA090E8000C82448344AAF1C3
:1001C0000107DA4501D100F033F8AFF2090EBAE8C1
:1001D0000F0013F0010F18BFFB1A43F0010318477B
:1001E0003420000054200000103A24BF78C878C1A1
:1001F000FAD8520724BF30C830C144BF04680C602D
:10020000704700000023002400250026103A28BF74
:1002100078C1FBD8520728BF30C148BF0B60704778
:100220001FB501F0DAFF00F0F7F81FBD10B510BDE3
:1002300000F004F91146FFF7F3FF01F07FFF00F033
:1002400022F903B4FFF7F2FF03BC00F029F9000024
:100250000948804709480047FEE7FEE7FEE7FEE75A
:10026000FEE7FEE7FEE7FEE7FEE7FEE70448054996
:10027000054A064B70470000151B0008AD01000839
:100280005801002058070020580300205803002080
:1002900053EA020C00F069802DE9F04B4FF00006A4
:1002A000002B1FBFB3FA83F503FA05F424FA05F611
:1002B0005E4012BF1643B2FA82F502FA05F4C5F1A8
:1002C00020051EBF22FA05FC44EA0C04203556EA3C
:1002D000044C4FEA144418BF641C4FF000084FF060
:1002E0000009904271EB030C39D3002919BFB1FA10
:1002F00081F701FA07F6B0FA80F700FA07F6C7F1BE
:1003000020071EBF20FA07FC46EA0C062037B6FB82
:10031000F4FCA7EB0507103F07F01F0BCBF12006FD
:100320002CFA06F60CFA0BFB44BFB3460026202F2E
:10033000A4BF5E464FF0000B5BEA060C08BF4FF00F
:10034000010B19EB0B0948EB0608ABFB027C06FB23
:1003500002CC0BFB03CCC01B71EB0C01C1E70B46BD
:10036000024641464846BDE8F08B13B5084318BF26
:100370004FF0FF300146AFF30080BDE81C407047EE
:100380004FF000020429C0F0128010F0030C00F0BE
:100390001B80CCF1040CBCF1020F18BF00F8012B3C
:1003A000A8BF20F8022BA1EB0C0100F00DB85FEA0A
:1003B000C17C24BF00F8012B00F8012B48BF00F8D6
:1003C000012B70474FF0000200B513469446964645
:1003D000203922BFA0E80C50A0E80C50B1F1200158
:1003E000BFF4F7AF090728BFA0E80C5048BF0CC006
:1003F0005DF804EB890028BF40F8042B08BF704764
:1004000048BF20F8022B11F0804F18BF00F8012BD5
:10041000704770477047704770B5064C7C44064D76
:100420007D4404E02046016808448047241DAC4216
:10043000F8D170BD141E0000141E0000754600F0B7
:100440002BF8AE4605006946534620F00700854666
:1004500018B020B5FFF70AFFBDE820404FF00006B6
:100460004FF000074FF000084FF0000BAC46ACE82F
:10047000C009ACE8C009ACE8C009ACE8C00921F08B
:1004800007018D46704710B50446AFF30080204643
:10049000BDE81040FFF7D5BE0048704710000020AF
:1004A00001491820ABBEFEE726000200704700009D
:1004B000FEE7000040F27000C2F2000000F060B8F9
:1004C0007047000072B600BFFEE7000070B5866D91
:1004D000044600F00BFB94F83510022928D105469C
:1004E0002068216C026822F016020260426922F044
:1004F0008002426109B9A16C19B1016821F00801BB
:100500000160016821F00101016000BF20680068FE
:10051000C00715D000F0EAFA401B0628F6D32020C9
:100520006065032084F83500002184F8341070BD24
:10053000802060650120002184F8341070BD00BF68
:10054000E06D3F2101FA00F0B060012084F8350031
:100550000020002184F8341070BD000090F83510A0
:10056000022909D1052180F835100068016821F0C1
:100570000101016000207047802141650120704722
:10058000F0B581B004460020009040F20800C2F2AD
:1005900000000268D4E9166048F2B51337680821F4
:1005A000C1F64E3381403942A2FB03250CD02268AC
:1005B00013685B0708D5136823F004031360B16068
:1005C000616D41F00101616501218140394208D02E
:1005D00022685269120604D5B160616D41F00201D2
:1005E000616504218140394208D02268126892076F
:1005F00004D5B160616D41F0040161651021814055
:10060000394217D020680268120713D5B16002681A
:100610000168520308D4C90508D4016821F0080113
:100620000160216C21B905E008033FD4216C09B1B8
:1006300020468847E16D202000FA01F23A4241D07D
:1006400020680368DB063DD5B26094F83530026857
:10065000052B1BD122F016020260426922F08002B3
:100660004261226C0AB9A26C1AB1026822F0080237
:1006700002603F208840B060012084F83500216D81
:100680000020002984F8340052D157E00168520359
:1006900010D4C90512D4016821F0100101600120B5
:1006A00084F83500002084F8340007E0A16C0029AC
:1006B000BED1BFE7080301D4616C00E0E16B09B172
:1006C00020468847606DC8B3606DC0072ED00520F6
:1006D00084F835002068A90A026822F0010202604D
:1006E000009A01328A4200921AD80268D20717D0C3
:1006F000009A01328A42009212D80268D2070FD0C3
:10070000009A01328A4200920AD80268D20707D0C2
:10071000009A01328A42009202D80268D207DFD1E1
:10072000012084F83500002084F83400E16C29B100
:10073000204601B0BDE8F040084700BF01B0F0BD61
:100740002DE9F041044600F0D1F9ECB10546022054
:1007500084F835000020216884F83400086820F00F
:100760000100086021680868C00711D000F0BEF9D8
:10077000401B0528F6D9032520230320636584F850
:100780003550BDE8F08100BF0120BDE8F08100BF19
:10079000086848F23F02CFF21002D4E9013500EABE
:1007A000020C04F10C0898E8C10143EA0C032B4346
:1007B0001843D4E9072E304338431043626A40EAB5
:1007C0000E00042A40EA08031CD1206BD4E90A2E4B
:1007D00040EA0E00184308604869BEF1000F20F09F
:1007E000030040EA020040F0040C11D0B8F5005FAD
:1007F00036D0B8F1000F45D1022A46D0012A3BD0AD
:1008000032B942E00B60486920F0070040EA020C70
:1008100001F0F8004AF6AB221038CAF6AA22A0FB73
:1008200002231A0942F20C23C0F600039A5C40F23C
:10083000FF335F284FF03F00C1F814C021EA0301E5
:1008400000FA02F088BF0431C4E916128860002360
:1008500001250020636584F83550BDE8F08100BFB4
:10086000032AD5D8012540230120DFE802F0030E3A
:10087000030500BF82E700BFAEF1C070B0FA80F0A0
:10088000400904E0032A04D3C2D1CEF3006000285B
:10089000BED0012540230120636584F83550BDE8B2
:1008A000F081000070B590F834C0BCF1010F46D063
:1008B0004FF0010C80F834C0D0F858E090F835C003
:1008C000BCF1010F38D14FF0020C80F835C04FF069
:1008D000000CC0F854C0D0F800C08468056CC06D2E
:1008E000DCF80060402C26F48026CCF80060CCF8C0
:1008F00004300B4604BF13460A463F2101FA00F0BC
:10090000CCF80830CCF80C20CEF80800DCF8000059
:1009100040F01600CCF800002DB1DCF8000040F0EB
:100920000800CCF80000DCF8000040F00100CCF832
:100930000000002070BD00BF002180F834100220AC
:1009400070BD00002DE9F04F82B000F13E4242F24E
:10095000004502F1FF77C4F202050A2243F6004E79
:100960004FEAB726A84208BF0922C4F2010E092E99
:1009700038BF4FEAB7220125002600274FF00008B4
:10098000009208E008F101080437B8F1100F06F1F1
:10099000020600F0A7800C6805FA08F914EA090FAE
:1009A000F0D0D1F804B003220BF0030CACF1010439
:1009B000B240012C6FEA020A10D88268CC6802EAC1
:1009C0000A02B440224382604268CBF3001422EA58
:1009D000090204FA08F42243426005E0BCF1030F67
:1009E00002D14FF0030C20E0C2688C6802EA0A02D0
:1009F000B4402243BCF1020FC26016D16FF0030273
:100A000002EA58020244D2F820C007F01C050F2366
:100A10000C69AB402CEA030304FA05F52B4313627F
:100A2000D1F804B001250BF0030C02680CFA06F3B0
:100A300002EA0A021A431BF4403F0260A2D00022DD
:100A400043F644030192C4F202031A684FF6084CBD
:100A500042F480421A601A68CFF6FF7C02F48042AA
:100A60000192019A28F00302724452F80C3007F008
:100A70000C050F24AC40A343009C04FA05F52B435E
:100A800042F80C30DEF808204B6842EA090543F6CC
:100A90000C4CDC0258BF22EA0905CEF80850C4F21B
:100AA000010CDCF800209C0242EA090558BF22EA4A
:100AB0000905CCF80050DEF804209C0342EA090541
:100AC00058BF22EA0905CEF80450DEF80020DB0307
:100AD00042EA090558BF22EA0905CEF8005001256F
:100AE00050E700BF02B0BDE8F08F000040F25010A8
:100AF000C2F200000068704740F2000040F250115E
:100B0000C2F20000C2F2000100780A6810440860D6
:100B10007047000080B543F60040C4F2020001684F
:100B200041F400710160016841F480610160016875
:100B300041F480710160032000F088F80F2000F07C
:100B400005F800F027F8002080BD000070B540F2E5
:100B50000006C2F2000640F208013278C2F200013B
:100B60004FF47A730968B3FBF2F20446B1FBF2F179
:100B7000084600F043FB0F2C4FF0010508D838B9A8
:100B80004FF0FF3021460022002500F033F874605A
:100B9000284670BD82B0002043F640010190C4F2A7
:100BA00002014A6842F480424A604A6802F4804284
:100BB0000192019A0090086840F08050086008682F
:100BC00000F080500090009802B07047002848BFA5
:100BD0007047C1B200F01F00012202FA00F04EF28D
:100BE0000012CEF2000242EAD10121F003010860B6
:100BF0007047000010B54EF60C5CCEF2000CDCF82D
:100C00000030C3F3022E8EF00704042C28BF042406
:100C1000BEF103034FF0FF3E0EFA04F438BF002389
:100C2000A14399400EFA03F39A43114300F00F02D7
:100C300000F160430901043A03F56443624400286B
:100C400048BF02F10C03197010BD00004EF60C51A4
:100C5000CEF200010A684FF6FF031A4060F30A2241
:100C600042F0806040F0FD70086070472DE9F0416F
:100C7000002800F08B8043F60808C4F202080446FE
:100C8000D8F8F8030D4600F00F00884207D288F824
:100C9000F853D8F8F80300F00F00A84276D1206886
:100CA000810717D5410705D5D8F8001041F4E05168
:100CB000C8F80010010705D5D8F8001041F46041CC
:100CC000C8F80010D8F80010A26821F0F001114314
:100CD000C8F80010C0073FD1D8F8F80300F00F00A3
:100CE000A84207D988F8F853D8F8F80300F00F00A5
:100CF000A8424BD12068410707D5D8F80010E26818
:100D000021F4E0511143C8F80010000708D5D8F8C5
:100D10000000216920F4604040EAC100C8F80000EA
:100D200000F07CF8D8F8001042F2F412C1F303117D
:100D3000C0F60002515C40F2080220FA01F140F2D4
:100D40000400C2F200000068C2F200021160FFF766
:100D5000FDFE0020BDE8F0816068811E022907D2F7
:100D600058F8081C89015CBF0120BDE8F08111E042
:100D7000012807D158F8081C89035CBF0120BDE891
:100D8000F08107E058F8081C890703D40120BDE86A
:100D9000F08100BFD8F8001021F003010843C8F823
:100DA0000000FFF7A3FE064641F28837D8F800009E
:100DB000616800F00C00B0EB810F8DD0FFF796FE5C
:100DC000801BB842F2D90320BDE8F08140F2080050
:100DD00043F60801C2F20000C4F20201006809688B
:100DE00042F20422C1F38221C0F60002515CC840E5
:100DF0007047000040F2080043F60801C2F200000C
:100E0000C4F202010068096842F20422C1F34231CF
:100E1000C0F60002515CC8407047000010B543F6B0
:100E20000404C4F20204606800F00C0008280BD02F
:100E3000042819BF42F20040C0F2F40047F6400017
:100E4000C0F27D1010BD00BF2068216823684902F0
:100E500047F64001C0F27D1100F03F02C3F3881055
:100E60005CBF42F20041C0F2F401A1FB000100238B
:100E7000FFF70EFA21680222C1F3014102EB4101A2
:100E8000B0FBF1F010BD00002DE9F04182B0002868
:100E900068D00446007843F60006C007C4F2020694
:100EA0000BD0B06800F00C00042840F09F80306840
:100EB000800302D56068002854D0207880071AD5B6
:100EC000B06810F00C0F09D0B06800F00C000828D2
:100ED00040F0A6807068400200F1A2803068800770
:100EE00002D5E06801283DD13068216920F0F80082
:100EF00040EAC10030602078000737D420784007EE
:100F00004CD4A56955B3B06800F00C00082840F037
:100F1000BB80012D26D07068E16900F480028A420E
:100F200020D1216A00F03F028A421BD147F6C071EE
:100F3000626A0140B1EB821F14D1A16A4FF6FF73C0
:100F4000C903994300F44032A1F580318A4209D1A6
:100F5000E16A00F07060B0EB016F03D1002002B0D5
:100F6000BDE8F081012002B0BDE8F0816069002891
:100F700040F20000C4F2472076D00121C0F8801E64
:100F8000FFF7B4FD054600BF706F8007B6D4FFF7CA
:100F9000ADFD401B0228F7D9DDE000BF306C10F03A
:100FA00080580AD100200190306C40F080503064AD
:100FB000306C00F080500190019847F20007C4F2B5
:100FC00000073868C00541D4386840F48070386044
:100FD000FFF78CFD054600BF3868C00536D4FFF723
:100FE00085FD401B0228F7D9B5E000BFB06800F0CE
:100FF0000C00082803D1706840023FF558AF6068C4
:10100000B0F5803F07D0B0F5A02F40F08D8030685C
:1010100040F480203060306840F4803030608DE0F3
:10102000E068002852D00020C4F24720012101606E
:10103000FFF75CFD054600BF306880073FF554AF01
:10104000FFF754FD401B0228F6D984E0A068012870
:1010500005D005284ED1306F40F004003067306F66
:1010600040F0010030674FE00021C0F8801EFFF71C
:101070003DFD0546706F80077FF540AFFFF736FDF9
:10108000401B0228F6D966E00027C4F2472700205B
:101090003866FFF72BFD022D05460BD13068800125
:1010A0005ED5FFF723FD401B02284FF00300F5D962
:1010B00055E700BF306880017FF550AFFFF716FDA0
:1010C000401B02284FF00300F4D948E70020C4F287
:1010D000472000210160FFF709FD054630688007C1
:1010E0007FF509AFFFF702FD401B02284FF0030018
:1010F000F4D934E7316F002821F001013167316FF5
:1011000021F0040131674DD0FFF7F0FC054641F2B4
:10111000883700BF306F800756D4FFF7E7FC401BCD
:10112000B842F7D917E000BF3168002821F48031B8
:101130003160316821F4802131604FD0FFF7D6FC57
:10114000054600BF306880033FF5B7AEFFF7CEFC21
:10115000401B6428F6D9032002B0BDE8F08100BF2F
:1011600004F11C052FCD084340EA8210D9034FF645
:10117000FF729143A1F5803140EA05600843706039
:1011800001203866FFF7B2FC044600BF30688001DA
:101190003FF5E4AEFFF7AAFC001B02284FF0030066
:1011A000F4D9DCE6FFF7A2FC054641F2883700BF20
:1011B000306F800708D5FFF799FC401BB8424FF00D
:1011C0000300F5D9CBE600BFB8F1000F7FF499AE6C
:1011D000306C20F08050306493E600BFFFF786FC4F
:1011E000054600BF306880037FF567AEFFF77EFCE1
:1011F000401B64284FF00300F4D9B0E6411E0020E4
:10120000B0EB116F1CBF012070474EF21002CEF2FE
:10121000000251604EF62351CEF20001F0230B7014
:101220000721906011607047704700007047000010
:10123000B0B582B0044600680168C368426901F035
:101240002F05202D03F0200506D12DB1204602B038
:10125000BDE8B04000F0E8BD5FEA017C1EBF02F0CF
:10126000010E03F4907212EB0E0253D1226B012A8D
:1012700005D111F0100218BF13F0100236D10A0682
:1012800022D513F080021FD094F8411021293FD1BC
:10129000A168B1F5805F03D12169002900F0728255
:1012A000216A4A1C226209784160E18C01390A04F2
:1012B000E1842DD1C16821F08001C160C16841F095
:1012C0004001C16002B0B0BD490621D513F0400114
:1012D0001ED0C16821F04001C1602021204684F861
:1012E000411002B0BDE8B04000F0AABB002101915E
:1012F000016801914168019101994069400613D448
:10130000A08DE18DE28D002A18BF884240F0BC819B
:1013100002B0B0BDCA0718BF13F4807240F0B880A5
:101320004A0700F1BB80C0E0E06B016849688AB2FF
:10133000002AEDD0A38D9A42EAD2E185C069B0F5CA
:10134000807F00F09C80206850E8030F216820F423
:10135000807041E80302DAB1206850E8030F216889
:1013600020F4807041E8030292B1206850E8030F36
:10137000216820F4807041E803024AB1206850E8F7
:10138000030F216820F4807041E80302002ADAD1BB
:10139000206850E8050F216820F0010041E80502AF
:1013A000DAB1206850E8050F216820F0010041E81B
:1013B000050292B1206850E8050F216820F0010075
:1013C00041E805024AB1206850E8050F216820F085
:1013D000010041E80502002ADAD1206850E8050F33
:1013E000216820F0400041E80502DAB1206850E8A9
:1013F000050F216820F0400041E8050292B1206805
:1014000050E8050F216820F0400041E805024AB18C
:10141000206850E8050F216820F0400041E80502EF
:10142000002ADAD1202084F84200002020632068BE
:1014300050E8030F216820F0100041E80302DAB100
:10144000206850E8030F216820F0100041E80302F3
:1014500092B1206850E8030F216820F0100041E8A5
:1014600003024AB1206850E8030F216820F0100001
:1014700041E80302002ADAD1E06BFFF727F80220E7
:101480006063A08DE18D401A81B2204675E100BFF6
:10149000626C42F0010262644A0706D5BEF1000F99
:1014A00003D0626C42F0020262648A0706D5BEF184
:1014B000000F03D0626C42F004026264BCF1000FC2
:1014C00009D545EA0E02B2FA82F2520903D1626CE2
:1014D00042F008026264626C002A3FF419AF11F016
:1014E000200118BF002D03D0204600F09DFC20688D
:1014F0004069616C00F0400001F00801401800F004
:10150000B58000BF206850E8030F216820F4907078
:1015100041E80302BAB3206850E8030F216820F4C1
:10152000907041E8030272B3206850E8030F21680D
:1015300020F4907041E803022AB3206850E8030FBA
:10154000216820F4907041E80302002ADAD11AE001
:10155000206850E8050F216820F0010041E80502ED
:10156000DAB1206850E8050F216820F0010041E859
:10157000050292B1206850E8050F216820F00100B3
:1015800041E805024AB1206850E8050F216820F0C3
:10159000010041E80502002ADAD1206B012824D19C
:1015A000206850E8030F216820F0100041E8030292
:1015B000DAB1206850E8030F216820F0100041E8FC
:1015C000030292B1206850E8030F216820F0100058
:1015D00041E803024AB1206850E8030F216820F077
:1015E000100041E80302002ADAD1202084F84200EA
:1015F000002020632068406940063FD5206850E8FD
:10160000050F216820F0400041E80502DAB12068AA
:1016100050E8050F216820F0400041E8050292B132
:10162000206850E8050F216820F0400041E80502DD
:101630004AB1206850E8050F216820F0400041E8D9
:101640000502002ADAD1E06BC0B141F62931C0F6BB
:1016500000010165FEF782FF00283FF459AEE06B00
:10166000016D02B0BDE8B040084700BF2046FFF75B
:10167000DDFD0020606402B0B0BD00BF204602B0B6
:10168000BDE8B040FFF7D2BD401A216851E8031F02
:10169000226821F4907142E80313DBB1216851E81C
:1016A000031F226821F4907142E8031393B121686B
:1016B00051E8031F226821F4907142E803134BB1F3
:1016C000216851E8031F226821F4907142E8031356
:1016D000002BDAD1216851E8051F226821F00101B1
:1016E00042E80513DBB1216851E8051F226821F0AB
:1016F000010142E8051393B1216851E8051F2268F2
:1017000021F0010142E805134BB1216851E8051FA2
:10171000226821F0010142E80513002BDAD12021D3
:1017200084F8421000212163216851E8031F2268D8
:1017300021F0100142E80313DBB1216851E8031FD7
:10174000226821F0100142E8031393B1216851E8A7
:10175000031F226821F0100142E803134BB12168F6
:1017600051E8031F226821F0100142E80313002B07
:10177000DAD1022281B22046626302B0BDE8B040F5
:10178000FFF752BD216A31F8022B6FF35F224260EE
:1017900021628AE5002804BF0120704710B5044685
:1017A00090F8410028B9002084F84000204600F05D
:1017B00021F8242084F841002068C16821F40051F8
:1017C000C160204600F0B0FB2068016921F490411F
:1017D0000161416921F02A014161C16841F4005170
:1017E000C16000202021606484F8411084F8421018
:1017F000606310BD70B586B00446016841F2000018
:10180000C4F20100814201D006B070BD002643F64B
:1018100030010196C4F202014A6900F5744042F0B9
:1018200010024A614A6902F010020192019A01967F
:101830000A6842F002020A60096801F0020101919F
:101840000199C02101910221CDE9021603210491E1
:101850000721059101A9FFF775F840F2700546F2DE
:101860004040C2F20005C4F202004FF000614FF4A4
:10187000806285E843002846C5E90362C5E905663C
:10188000C5E907666E62FEF75BFF002818BFFEF72A
:1018900019FE252000210022E563AC63FFF7AAF9B9
:1018A0002520FFF793F906B070BD000070B582B037
:1018B000044690F8420020280AD113460A4600291F
:1018C0004FF0010018BF002B06D102B070BD00BF61
:1018D000022002B070BD00BF002622202663A26253
:1018E000A385666484F842002168E06B41F6B14C40
:1018F00041F6116E41F63535C0F6000CC0F6000E0B
:10190000C0F600050431C0E90FCEC0E91356FEF75A
:10191000C9FF019620680168019140680190019813
:10192000206928B3206850E8030F216840F48070D4
:1019300041E80302E2B1206850E8030F216840F457
:10194000807041E803029AB1206850E8030F2168D3
:1019500040F4807041E8030252B1206850E8030F60
:10196000216840F4807041E80302002ADAD100BF08
:10197000206850E8050F216840F0010041E80502A9
:10198000E2B1206850E8050F216840F0010041E80D
:1019900005029AB1206850E8050F216840F0010067
:1019A00041E8050252B1206850E8050F216840F077
:1019B000010041E80502002ADAD100BF206850E8A2
:1019C000050F216840F0400041E80502DAB12068C7
:1019D00050E8050F216840F0400041E8050292B14F
:1019E000206850E8050F216840F0400041E80502FA
:1019F0004AB1206850E8050F216840F0400041E8F6
:101A00000502002ADAD1002002B070BD10B50068CE
:101A100041F20001C4F20101884218BF10BD40F23A
:101A20001814C2F20004204600F060FB204600F0CB
:101A300001FB2046BDE8104000F050BB704700009D
:101A400070470000FEE7000080B582B000200190E2
:101A500043F63000C4F202000168002241F4800124
:101A600001600068002100F48000019001983A2094
:101A7000FFF7C0F83A2002B0BDE88040FFF7A6B8F3
:101A800082B0002043F630010190C4F202010A68DE
:101A900042F001020A600A6802F001020192019A12
:101AA0000090086840F002000860086800F002003A
:101AB0000090009802B0704710B540F2D00041F29B
:101AC000000C48F2A062C2F20000C4F2010CC0F2A5
:101AD00001024FF4805300214FF4806E0C24C0E9C2
:101AE00000C2C0E90231C0E904E4C0E90611FFF711
:101AF00051FE002808BF10BDBDE81040FEF7E2BC53
:101B0000FEE70000FEE7000070470000704700009D
:101B1000FEF7F2BF4EF68850CEF20000016841F4A5
:101B20007001016070470000806B0021C185C18495
:101B3000FFF77CBB806B01684A6990F84130212B2C
:101B40002DD112F080022AD00021C184016851E811
:101B5000031F026821F0C00142E80313DBB10168F2
:101B600051E8031F026821F0C00142E8031393B15A
:101B7000016851E8031F026821F0C00142E8031325
:101B80004BB1016851E8031F026821F0C00142E82F
:101B90000313002BDAD1202180F841100168496934
:101BA00090F84220222A40F07D8011F0400179D047
:101BB0000021C185016851E8031F026821F490717A
:101BC00042E80313BBB3016851E8031F026821F424
:101BD000907142E8031373B3016851E8031F026870
:101BE00021F4907142E803132BB3016851E8031FFD
:101BF000026821F4907142E80313002BDAD11AE055
:101C0000016851E8051F026821F0010142E805134F
:101C1000DBB1016851E8051F026821F0010142E8CB
:101C2000051393B1016851E8051F026821F0010115
:101C300042E805134BB1016851E8051F026821F025
:101C4000010142E80513002BDAD1016B012924D1EF
:101C5000016851E8031F026821F0100142E80313F4
:101C6000DBB1016851E8031F026821F0100142E86E
:101C7000031393B1016851E8031F026821F01001BA
:101C800042E803134BB1016851E8031F026821F0D9
:101C9000100142E80313002BDAD1202180F8421012
:101CA00000210163416C41F010014164FFF7BEBAAD
:101CB0000168806B0968C90500F19F800021C1851A
:101CC000016851E8031F026821F4807142E80313A0
:101CD000E3B1016851E8031F026821F4807142E812
:101CE00003139BB1016851E8031F026821F480715E
:101CF00042E8031353B1016851E8031F026821F45D
:101D0000807142E80313002BDAD100BF016851E86B
:101D1000051F026821F0010142E80513BBB3016809
:101D200051E8051F026821F0010142E8051373B371
:101D3000016851E8051F026821F0010142E805131E
:101D40002BB3016851E8051F026821F0010142E848
:101D50000513002BDAD11AE0016851E8051F02686B
:101D600021F0400142E80513DBB1016851E8051F8D
:101D7000026821F0400142E8051393B1016851E87F
:101D8000051F026821F0400142E805134BB10168CC
:101D900051E8051F026821F0400142E80513002BBD
:101DA000DAD1202180F84210016B012925D100BF32
:101DB000016851E8031F026821F0100142E8031393
:101DC000DBB1016851E8031F026821F0100142E80D
:101DD000031393B1016851E8031F026821F0100159
:101DE00042E803134BB1016851E8031F026821F078
:101DF000100142E80313002BDAD100214163016B8B
:101E0000012918BFFFF702BE818DFFF70DBA000050
:101E1000806B01214163016B012918BFFFF70EBEE2
:101E2000818D4908FFF700BA81B090F8421022294D
:101E300021D183680246B3F5805F09D152F8281F8B
:101E400052F8183C002B63D003685B680AE000BFBF
:101E500052F8281F13B90369002BF5D003685B689B
:101E600003F07F030B70116801311160C18D0139DE
:101E70000A04C18502D001B0704700BF0168CA687A
:101E800022F02002CA60CA6822F48072CA604A69DD
:101E900022F001024A61202180F8421000214163B2
:101EA000026B012A3CD10163016851E8031F0268FB
:101EB00021F0100142E80313DBB1016851E8031F70
:101EC000026821F0100142E8031393B1016851E860
:101ED000031F026821F0100142E803134BB10168AF
:101EE00051E8031F026821F0100142E80313002BA0
:101EF000DAD101680A68D20606D5002200920A6883
:101F00000092496800910099818D01B0FFF78CB96A
:101F1000026852686FF35F2221F8022B8162A5E705
:101F200001B0FFF773BD000010B504460068D4E9A6
:101F300002C22369016921F44051114301616269C0
:101F400043EA0C01E3691143C268194349F20C6387
:101F50009A431143C1604169A26921F4407141F281
:101F60000043114340F48062C4F201039A4241618C
:101F700002D1FEF73FFF01E0FEF728FFE169636849
:101F80001922B1F5004FA0FB020123D15A00DB0F4B
:101F9000FEF77EF948F21F51C5F2EB11A0FB0123B9
:101FA0005A094FF69C73C0F6FF7303F1805302FB8E
:101FB0000300322303EBC000A0FB01014FF4F870D3
:101FC00000EA111000EB0210C1F34211084421682D
:101FD000886010BD9A009B0FFEF75AF948F21F5116
:101FE000C5F2EB11A0FB01235A094FF69C73C0F612
:101FF000FF7302FB0300322303EB0010A0FB01017F
:10200000F02000EA511000EB0210C1F34311084424
:102010002168886010BD000040F2D000C2F20000CC
:10202000FFF706B9FEE7000040F21810C2F2000008
:1020300000F072B8B0B590F812E0C27C4FF60045DF
:10204000CFF6FF75037D02F007014EEA050404EBAD
:10205000012190F815C000EE101A03F03F0145EA87
:10206000D20202EB411102EE101A817D4FEA8C027E
:1020700042EA931201F001042A4302EB842203EEA8
:10208000102AC27D45EA510102F00F0301EBC31192
:102090009FED111A04EE101AB8EEC00AB8EEC22A6B
:1020A000B8EEC33AB8EEC44A80EE010A82EE012AC5
:1020B00083EE013A84EE011AC2F3011180F8351063
:1020C000910980F8341080ED090A80ED0A2A80ED2C
:1020D0000B3A80ED0C1AB0BD00002544014640F2D9
:1020E000D000C2F200001222FFF7E0BB0178D0F866
:1020F00001208174C0F81320D0F80510D0F8092011
:10210000C0F81710C0F81B20D0F80D10427CC0F8A2
:102110001F1080F82320704710B50446123022218A
:10212000FEF72EF940F203312046A18610BD0000D3
:1021300040F21810C2F20000FFF7D0BF92B0FEF7D5
:10214000E9FC06AC201D2C21FEF73CF9002543F6E6
:1021500040000595CDE90355CDE901550095C4F240
:1021600002000168012241F080510160006800F026
:1021700080500090009847F200000095C4F20000E3
:10218000016862F38F310160006800F44040009004
:1021900000980220069010200A90204609920C9583
:1021A000FEF772FE10B172B6FEE700BF0F20CDE958
:1021B000010501A80021CDE903550595FEF756FD5F
:1021C00010B172B6FEE700BFFFF75AFCFFF73CFC08
:1021D000FFF772FCFFF7ACFFFEE7F1EE100A4FF6D7
:1021E000FF71C0F2C03120EA010040F04070E1EE22
:1021F000100A704700000000000000000102030404
:10220000060708090000000001020304000610167A
:102210000006101638220008000000201000000000
:10222000E8010008482200081000002048070000CC
:1022300004020008F5FDFFFF01000000100000008F
:082240000024F400000000007E
:04000005080001AD41
:00000001FF
