:020000040800F2
:10000000F007002051020008012A000859280008C2
:10001000FD2900086D040008792E0008000000008A
:10002000000000000000000000000000752A000829
:100030008104000800000000712A0008CD2A000891
:100040006B0200086B0200086B0200086B020008DC
:100050006B0200086B0200086B0200086B020008CC
:100060006B0200086B0200086B0200086B020008BC
:100070006B0200086B0200086B0200086B020008AC
:100080006B0200086B0200086B0200086B0200089C
:10009000710400086B0200086B0200086B02000884
:1000A0006B020008A52B00086B0200086B02000819
:1000B0006B0200086B0200086B0200086B0200086C
:1000C0006B0200086B0200086B0200086B0200085C
:1000D0006B0200086B0200086B0200086B0200084C
:1000E0006B0200086B0200086B0200086B0200083C
:1000F0006B0200086B0200086B0200086B0200082C
:100100006B0200086B0200086B0200086B0200081B
:100110006B0200086B020008B52B00086B02000898
:100120006B0200086B0200086B0200086B020008FB
:100130006B0200086B0200086B0200086B020008EB
:100140006B0200086B0200086B0200086B020008DB
:100150006B0200086B0200086B0200086B020008CB
:100160006B0200086B0200086B0200086B020008BB
:100170006B0200086B0200086B0200080000000020
:100180006B0200086B0200086B0200086B0200089B
:100190006B0200086B0200086B0200086B0200088B
:1001A00000000000000000006B02000800F002F8F0
:1001B00000F03EF80AA090E8000C82448344AAF1C3
:1001C0000107DA4501D100F033F8AFF2090EBAE8C1
:1001D0000F0013F0010F18BFFB1A43F0010318477B
:1001E0003433000054330000103A24BF78C878C17B
:1001F000FAD8520724BF30C830C144BF04680C602D
:10020000704700000023002400250026103A28BF74
:1002100078C1FBD8520728BF30C148BF0B60704778
:100220001FB503F061F900F0D5F81FBD10B510BD82
:1002300000F0E2F81146FFF7F3FF03F041F900F098
:1002400000F903B4FFF7F2FF03BC00F007F9000068
:100250000948804709480047FEE7FEE7FEE7FEE75A
:10026000FEE7FEE7FEE7FEE7FEE7FEE70448054996
:10027000054A064B70470000912B0008AD010008AD
:10028000F0010020F0070020F0030020F003002020
:1002900053EA020C00F069802DE9F04B4FF00006A4
:1002A000002B1FBFB3FA83F503FA05F424FA05F611
:1002B0005E4012BF1643B2FA82F502FA05F4C5F1A8
:1002C00020051EBF22FA05FC44EA0C04203556EA3C
:1002D000044C4FEA144418BF641C4FF000084FF060
:1002E0000009904271EB030C39D3002919BFB1FA10
:1002F00081F701FA07F6B0FA80F700FA07F6C7F1BE
:1003000020071EBF20FA07FC46EA0C062037B6FB82
:10031000F4FCA7EB0507103F07F01F0BCBF12006FD
:100320002CFA06F60CFA0BFB44BFB3460026202F2E
:10033000A4BF5E464FF0000B5BEA060C08BF4FF00F
:10034000010B19EB0B0948EB0608ABFB027C06FB23
:1003500002CC0BFB03CCC01B71EB0C01C1E70B46BD
:10036000024641464846BDE8F08B13B5084318BF26
:100370004FF0FF300146AFF30080BDE81C407047EE
:100380004FF0000200B5134694469646203922BF2E
:10039000A0E80C50A0E80C50B1F12001BFF4F7AF79
:1003A000090728BFA0E80C5048BF0CC05DF804EB5B
:1003B000890028BF40F8042B08BF704748BF20F8C9
:1003C000022B11F0804F18BF00F8012B70477047C7
:1003D0007047704770B5064C7C44064D7D4404E080
:1003E0002046016808448047241DAC42F8D170BD06
:1003F0005831000058310000754600F02BF8AE4629
:1004000005006946534620F00700854618B020B520
:10041000FFF72CFFBDE820404FF000064FF000072B
:100420004FF000084FF0000BAC46ACE8C009ACE858
:10043000C009ACE8C009ACE8C00921F007018D464D
:10044000704710B50446AFF300802046BDE8104069
:10045000FFF7F7BE00487047180000200149182038
:10046000ABBEFEE72600020070470000FFE7FEE794
:1004700080B540F2BC00C2F2000000F0BDFA80BDC1
:100480007047000072B6FFE7FEE7000084B00290FC
:100490000191029890F820008DF803009DF8030068
:1004A000012805D0FFE79DF8030002280AD1FFE7E5
:1004B000019A0298016848691043486100208DF84C
:1004C0000F0008E00299486A40F480204862012049
:1004D0008DF80F00FFE79DF80F0004B07047000093
:1004E00088B00690059104920393069890F8200036
:1004F0008DF807000698006880680090059880686D
:1005000008B9FFE700E0FFE79DF80700012806D0E3
:10051000FFE79DF80700022840F08080FFE79DF884
:100520000300400700280CD4FFE79DF803000007F4
:10053000002806D4FFE79DF80300C006002864D514
:10054000FFE70098C0F30160029002990120884003
:10055000039908600598806868B9FFE70598016805
:10056000C06840EA415006990968029A01EB0211FD
:10057000C1F880010EE005994A688868C96840EAB8
:10058000C200084306990968029A01EB0211C1F8FA
:100590008001FFE70598006906990968029A01EB56
:1005A0000211C1F884010598007D01280CD1FFE7F4
:1005B00006980068029900EB0111D1F8840140F41B
:1005C0008070C1F88401FFE70498406806990968C3
:1005D000029A01EB0211C1F88C0104980068069997
:1005E0000968029A01EB0211C1F8880106980068B7
:1005F000029900EB0111D1F8800140F00100C1F82F
:10060000800100208DF81F0011E00699486A40F42F
:100610000010486201208DF81F0008E00699486A22
:1006200040F48020486201208DF81F00FFE79DF80C
:100630001F0008B07047000086B004900391049832
:1006400000680190049890F820008DF803009DF850
:100650000300012806D0FFE79DF80300022840F0C0
:10066000B080FFE746F20040C4F20000019001991B
:10067000D1F8000240F00100C1F800020199D1F860
:10068000000220F47C50C1F800020398426A0199EC
:10069000D1F8000240EA0220C1F800020398406944
:1006A00000F01F01012088400290029A0199D1F8C0
:1006B0001C029043C1F81C020398C069F0B9FFE71F
:1006C000029A0199D1F80C029043C1F80C02039AE6
:1006D0009088D168526940EA0140019901EBC2015A
:1006E000C1F84002039A10889168526940EA0140BB
:1006F000019901EBC201C1F84402FFE70398C06908
:1007000001281ED1FFE7029A0199D1F80C0210438B
:10071000C1F80C02039A90881168526940EA0140BE
:10072000019901EBC201C1F84002039A90899168D6
:10073000526940EA0140019901EBC201C1F844024B
:10074000FFE70398806940B9FFE7029A0199D1F861
:1007500004029043C1F8040207E0029A0199D1F81B
:1007600004021043C1F80402FFE70398006940B98E
:10077000FFE7029A0199D1F814029043C1F81402DC
:1007800007E0029A0199D1F814021043C1F814024B
:10079000FFE70398006A012808D1FFE7029A019950
:1007A000D1F81C021043C1F81C02FFE70199D1F8EF
:1007B000000220F00100C1F8000200208DF81700AF
:1007C00008E00499486A40F48020486201208DF8CE
:1007D0001700FFE79DF8170006B0704781B0009042
:1007E00001B0704786B0049003910292019304987F
:1007F00090F820008DF803009DF80300012806D032
:10080000FFE79DF80300022840F0E880FFE7039827
:1008100080B9FFE704980068C068800748B9FFE71F
:100820000499486A40F40010486201208DF81700CE
:10083000DDE00FE0049800680069800748B9FFE731
:100840000499486A40F40010486201208DF81700AE
:10085000CDE0FFE704980068039900EB0110D0F8A1
:10086000B00100F00400029988600298806858B9CD
:10087000FFE704980068039900EB0110D0F8B0017D
:10088000400D029908600AE004980068039900EBA3
:100890000110D0F8B001C00802994860FFE7049841
:1008A0000068039900EB0110D0F8B00100F00200DD
:1008B0000299C86004980068039900EB0110D0F811
:1008C000B40100F00F00082804D3FFE702990820C4
:1008D00008610BE004980068039900EB0110D0F860
:1008E000B40100F00F0002990861FFE70498006866
:1008F000039900EB0110D0F8B40180B2000A02990C
:10090000886104980068039900EB0110D0F8B401E5
:10091000000C0299486104980068039900EB0110EB
:10092000D0F8B8010199087004980068039900EBA9
:100930000110D0F8B801000A0199487004980068C5
:10094000039900EB0110D0F8B801000C01998870F0
:1009500004980068039900EB0110D0F8B801000E6C
:100960000199C87004980068039900EB0110D0F851
:10097000BC010199087104980068039900EB01100B
:10098000D0F8BC01000A01994871049800680399E5
:1009900000EB0110D0F8BC01000C0199887104989B
:1009A0000068039900EB0110D0F8BC01000E01991A
:1009B000C871039838B9FFE704980168C86840F027
:1009C0002000C86006E004980168086940F0200033
:1009D0000861FFE700208DF8170008E00499486AD5
:1009E00040F48020486201208DF81700FFE79DF851
:1009F000170006B07047000080B58AB0099000204B
:100A00000890099800684069079009980068406854
:100A10000690099800688068059009980068C06889
:100A2000049009980068006903900998006880693B
:100A300002909DF81C00C007002800F09480FFE79A
:100A40009DF81400C00758B3FFE70998016801201A
:100A500088609DF814008007002804D5FFE70998F6
:100A600000F072FB1BE09DF814004007002805D53C
:100A7000FFE7089840F4006008900FE09DF814002C
:100A80000007002805D5FFE7089840F4805008903B
:100A900003E0099800F054FBFFE7FFE7FFE7FFE7FB
:100AA0009DF81500C00760B3FFE7099801684FF48F
:100AB000807088609DF815008007002804D5FFE746
:100AC000099800F049FB1BE09DF81500400700283D
:100AD00005D5FFE7089840F4005008900FE09DF816
:100AE00015000007002805D5FFE7089840F480406E
:100AF000089003E0099800F02BFBFFE7FFE7FFE712
:100B0000FFE79DF81600C00760B3FFE7099801688A
:100B10004FF4803088609DF816008007002804D5C7
:100B2000FFE7099800F020FB1BE09DF81600400746
:100B3000002805D5FFE7089840F4004008900FE032
:100B40009DF816000007002805D5FFE7089840F437
:100B50008030089003E0099800F002FBFFE7FFE710
:100B6000FFE7FFE7FFE79DF81C000007002810D50E
:100B7000FFE79DF81000C006002809D5FFE7089898
:100B800040F400700890099801681020C860FFE7E1
:100B9000FFE79DF81C00400700280FD5FFE79DF8F0
:100BA00010000007002808D5FFE709980168082011
:100BB000C860099800F05CFAFFE7FFE79DF81C00A9
:100BC000800700280BD5FFE709980068C0688007F8
:100BD00020B1FFE7099800F04FFAFFE7FFE79DF823
:100BE0001C004006002810D5FFE79DF80C00C00649
:100BF000002809D5FFE7089840F48060089009981C
:100C0000016810200861FFE7FFE79DF81C008006DF
:100C100000280FD5FFE79DF80C000007002808D535
:100C2000FFE70998016808200861099800F036FA82
:100C3000FFE7FFE79DF81C00C00600280BD5FFE783
:100C4000099800680069800720B1FFE7099800F063
:100C500029FAFFE7FFE79DF81E00800700280FD55F
:100C6000FFE79DF81800C006002808D5FFE709989F
:100C7000016810204860099800F018FAFFE7FFE7C4
:100C80009DF81E00C00778B1FFE79DF81800000727
:100C9000002808D5FFE709980168082048600998EE
:100CA00000F066FAFFE7FFE79DF81D000006002848
:100CB00040F18D80FFE79DF818004007002840F1C3
:100CC0008180FFE79DF81D00C00750B1FFE79DF848
:100CD0000800C00728B1FFE7089840F0010008901D
:100CE000FFE79DF81D00800700280BD5FFE79DF862
:100CF00008008007002805D5FFE7089840F00200AB
:100D00000890FFE79DF81D00400700280BD5FFE77E
:100D10009DF808004007002805D5FFE7089840F037
:100D200004000890FFE79DF81D000007002848D543
:100D3000FFE79DF8080010F0700F42D0FFE702981F
:100D400000F0700001460191102814D0FFE70198CF
:100D5000202815D0FFE70198302816D0FFE701982A
:100D6000402817D0FFE70198502818D0FFE70198D6
:100D7000602819D01DE0089840F00800089019E09C
:100D8000089840F01000089014E0089840F0200007
:100D900008900FE0089840F0400008900AE008989A
:100DA00040F08000089005E0089840F480700890BA
:100DB00000E0FFE709980168886920F07000886109
:100DC000FFE7FFE70998016804204860FFE70898FB
:100DD00048B1FFE7089A0999486A104348620998A0
:100DE000FFF7FCFCFFE70AB080BD000080B584B0CF
:100DF0000290029820B9FFE701208DF80F00E0E093
:100E0000029890F8200020B9FFE7029800F0DEF881
:100E1000FFE702980168086840F00100086000F0F0
:100E2000A3FB0190FFE7029800684068C007A8B9DB
:100E3000FFE700F099FB0199401A0B280DD3FFE75B
:100E40000299486A40F4003048620299052081F80E
:100E5000200001208DF80F00B3E0E4E7029801685C
:100E6000086820F00200086000F07EFB0190FFE7B8
:100E70000298006840688007002815D5FFE700F059
:100E800073FB0199401A0B280DD3FFE70299486ABA
:100E900040F4003048620299052081F820000120CA
:100EA0008DF80F008DE0E3E70298007E012807D15E
:100EB000FFE702980168086840F08000086006E0DB
:100EC00002980168086820F080000860FFE7029837
:100ED000407E012807D1FFE702980168086840F0CA
:100EE0004000086006E002980168086820F04000B1
:100EF0000860FFE70298807E012807D1FFE702988B
:100F00000168086840F02000086006E00298016867
:100F1000086820F020000860FFE70298C07E0128E2
:100F200007D1FFE702980168086820F01000086008
:100F300006E002980168086840F010000860FFE7CA
:100F40000298007F012807D1FFE70298016808682E
:100F500040F00800086006E002980168086820F088
:100F600008000860FFE70298407F012807D1FFE7EB
:100F700002980168086840F00400086006E00298E2
:100F80000168086820F004000860FFE7029B196808
:100F90005A689868D3F80CC040EA0C00D3F810C027
:100FA00040EA0C005B691843013A1043C86102999A
:100FB00000204862029A012182F820108DF80F006B
:100FC000FFE79DF80F0004B080BD000080B58AB037
:100FD00009900020089007900690059004900998C9
:100FE000006846F20041C4F2000188423DD1FFE7AB
:100FF000FFE70020039043F64000C4F202000168BE
:1010000041F000710160006800F0007003900398E7
:10101000FFE7FFE70020029043F63000C4F2020031
:10102000016841F008010160006800F008000290CA
:101030000298FFE70320049002210591002100910E
:10104000069107900920089040F60040C4F2020083
:1010500004A900F091F8009A14200190114600F0C4
:101060001DFB019800F010FBFFE70AB080BD0000F7
:1010700081B0009001B0704780B582B001900198B6
:1010800040F28802C2F2000240F2A013C2F2000352
:101090000021FFF7A7FB02B080BD000081B00090E7
:1010A00001B0704781B0009001B0704781B00090EE
:1010B00001B0704780B584B00290029890F820008B
:1010C00001282FD1FFE70299022081F82000029821
:1010D0000168086820F00100086000F045FA0190FE
:1010E000FFE7029800684068C007A8B1FFE700F07A
:1010F0003BFA0199401A0B280DD3FFE70299486A81
:1011000040F4003048620299052081F82000012057
:101110008DF80F000FE0E4E70299002048628DF897
:101120000F0008E00299486A40F40020486201205C
:101130008DF80F00FFE79DF80F0004B080BD0000A0
:1011400081B0009001B0704781B0009001B070474D
:1011500081B0009001B0704781B0009001B070473D
:1011600081B0009001B0704781B0009001B070472D
:1011700081B0009001B0704790B00F900E910020A8
:101180000C900B900A900D90FFE70D980F2800F23D
:10119000E881FFE70D99012088400C900E980068C7
:1011A0000C9908400B900B980C99884240F0D48120
:1011B000FFE70E98406800F00300012807D0FFE722
:1011C0000E98406800F0030002282FD1FFE70F9827
:1011D00080680A900D984100032000FA01F10A98F6
:1011E00088430A900E98C0680D99490000FA01F1F1
:1011F0000A9808430A900A980F9988600F984068E7
:101200000A900D99012000FA01F10A9888430A908A
:101210000E984068C0F300100D9900FA01F10A9889
:1012200008430A900A980F994860FFE70E984068B3
:1012300000F00300032818D0FFE70F98C0680A9059
:101240000D984100032000FA01F10A9888430A90A2
:101250000E9880680D99490000FA01F10A98084338
:101260000A900A980F99C860FFE70E98406800F04E
:101270000300022826D1FFE70F980D996FF00302B3
:1012800002EA51010844006A0A900D9800F0070034
:1012900081000F2000FA01F10A9888430A900E9805
:1012A00000690D9901F00701890000FA01F10A981F
:1012B00008430A900A980F990D9B02EA53021144C1
:1012C0000862FFE70F9800680A900D98410003201C
:1012D00000FA01F10A9888430A900E98406800F0DD
:1012E00003000D99490000FA01F10A9808430A9099
:1012F0000A980F9908600E9880798007002800F0FE
:101300002A81FFE7FFE70020099043F64400C4F27A
:101310000200016841F480410160006800F48040EF
:1013200009900998FFE70D9820F0030043F60801A3
:10133000C4F2010140580A900D9800F003008100AA
:101340000F2000FA01F10A9888430A900F980021B3
:10135000C4F20201884203D1FFE7002008907AE03E
:101360000F9840F20041C4F20201884203D1FFE726
:10137000012007906CE00F9840F60001C4F20201D2
:10138000884203D1FFE7022006905EE00F9840F606
:101390000041C4F20201884203D1FFE70320059017
:1013A00050E00F9841F20001C4F20201884203D1DB
:1013B000FFE70420049042E00F9841F20041C4F29C
:1013C0000201884203D1FFE70520039034E00F9823
:1013D00041F60001C4F20201884203D1FFE7062072
:1013E000029026E00F9841F60041C4F202018842C3
:1013F00003D1FFE70720019018E00F9842F20001A7
:10140000C4F20201884203D1FFE7082000900AE0FD
:101410000F9942F20042C4F202020A20914208BF30
:1014200009200090FFE700980190FFE701980290E3
:10143000FFE702980390FFE703980490FFE7049802
:101440000590FFE705980690FFE706980790FFE7ED
:1014500007980890FFE70898C0B20D9901F00301C2
:10146000890000FA01F10A9808430A900A980D9938
:1014700021F0030143F60802C4F20102885043F64A
:101480000840C4F2010000680A900B990A9888434A
:101490000A900E988079C006002805D5FFE70B99C1
:1014A0000A9808430A90FFE70A9843F60841C4F2F5
:1014B0000101086043F60C40C4F2010000680A9084
:1014C0000B990A9888430A900E9880798006002824
:1014D00005D5FFE70B990A9808430A90FFE70A9899
:1014E00043F60C41C4F20101086043F60440C4F223
:1014F000010000680A900B990A9888430A900E9898
:1015000080798007002805D5FFE70B990A980843E2
:101510000A90FFE70A9843F60441C4F2010108600B
:1015200043F60040C4F2010000680A900B990A9843
:1015300088430A900E988079C00728B1FFE70B997D
:101540000A9808430A90FFE70A9843F60041C4F25C
:1015500001010860FFE7FFE7FFE70D9801300D90FC
:1015600013E610B07047000040F2EC10C2F2000029
:101570000068704740F21000C2F20000027840F2AA
:10158000EC11C2F2000108681044086070470000C6
:1015900080B582B043F60041C4F20201086840F40D
:1015A00000700860086840F480600860086840F4D3
:1015B00080700860032000F08BF80020019000F09C
:1015C00005F800F03BF8019802B080BD80B582B00C
:1015D000009040F20C00C2F20000006840F21001DE
:1015E000C2F200010A784FF47A71B1FBF2F1B0FB5C
:1015F000F1F000F07BFD20B1FFE701208DF807003E
:1016000018E000980F280DD8FFE700994FF0FF3041
:10161000002200F043F8009840F21401C2F20001E9
:10162000086003E001208DF8070003E000208DF83A
:101630000700FFE79DF8070002B080BD82B0FFE71A
:101640000020019043F64400C4F20200016841F416
:1016500080410160006800F4804001900198FFE73C
:10166000FFE70020009043F64000C4F2020001684A
:1016700041F080510160006800F0805000900098B7
:10168000FFE702B07047000080B582B08DF8070018
:101690009DF9070001F0EEFD02B080BD80B586B077
:1016A0008DF81700049103920020029001F0FAFDDA
:1016B00002909DF91700019002980499039A01F095
:1016C000A1F90146019801F0F5FD06B080BD0000CA
:1016D00080B582B00190019801F00EFE02B080BD8D
:1016E00080B584B002900191029820B9FFE70120F3
:1016F0008DF80F0021E1019843F60041C4F2020188
:10170000096801F00F01884212D9FFE7019943F6F9
:101710000040C4F202000170006800F00F0001995F
:10172000884204D0FFE701208DF80F0005E1FFE7B4
:1017300002980078800700282AD5FFE702980078F1
:101740004007002809D5FFE743F60801C4F202016B
:10175000086840F4E0500860FFE70298007800074E
:10176000002809D5FFE743F60801C4F20201086822
:1017700040F460400860FFE743F60801C4F202014C
:10178000086820F0F000029A926810430860FFE7B2
:1017900002980078C00700286ED0FFE702984068E2
:1017A000012811D1FFE743F60000C4F202000068EF
:1017B00000F400310020B0EB514F04D1FFE70120CD
:1017C0008DF80F00B9E02CE002984068022805D09F
:1017D000FFE702984068032811D1FFE743F60000B5
:1017E000C4F20200006800F000710020B0EB516FFD
:1017F00004D1FFE701208DF80F009EE010E043F6D2
:101800000000C4F20200006800F002010020B0EB0A
:10181000510F04D1FFE701208DF80F008DE0FFE7A5
:10182000FFE743F60801C4F20201086820F0030054
:10183000029A526810430860FFF796FE0090FFE797
:1018400043F60800C4F20200006800F00C000299A0
:101850004968B0EB810F0ED0FFE7FFF785FE0099D6
:10186000401A41F28931884204D3FFE703208DF802
:101870000F0062E0E4E7FFE7019843F60041C4F29D
:101880000201096801F00F01884212D2FFE70199B5
:1018900043F60040C4F202000170006800F00F003F
:1018A0000199884204D0FFE701208DF80F0044E041
:1018B000FFE702980078400700280CD5FFE743F6C1
:1018C0000801C4F20201086820F4E050029AD268CC
:1018D00010430860FFE702980078000700280DD544
:1018E000FFE743F60801C4F20201086820F46040F3
:1018F000029A126940EAC2000860FFE700F022F88D
:1019000043F60801C4F202010968C9B20A0943F2A8
:101910000251C0F60001895CC84040F20C01C2F2DD
:101920000001086040F21400C2F200000068FFF7F6
:101930004DFE00208DF80F00FFE79DF80F0004B06A
:1019400080BD000080B586B0002005900490039013
:10195000029043F60800C4F20200006800F00C0098
:101960000146019140B1FFE7019804280AD0FFE742
:10197000019808280CD04FE042F20040C0F2F40079
:1019800002904FE041F60030C0F2B700029049E00B
:1019900043F60400C4F20200016801F03F01059122
:1019A00000684002002813D5FFE743F60400C4F2A4
:1019B00002000068C0F3881041F60031C0F2B701A0
:1019C000A0FB0101059A0023FEF762FC049012E0DF
:1019D00043F60400C4F202000068C0F3881042F22B
:1019E0000041C0F2F401A0FB0101059A0023FEF7BB
:1019F0004FFC0490FFE743F60400C4F202000068C5
:101A000000F44031022000EBD13003900498039998
:101A1000B0FBF1F0029005E042F20040C0F2F400A9
:101A20000290FFE7029806B080BD000080B586B046
:101A30000490049820B9FFE701208DF8170050E3C7
:101A400004980078C007002800F0A580FFE743F65F
:101A50000800C4F20200006800F00C00042813D053
:101A6000FFE743F60800C4F20200006800F00C0033
:101A700008281ED1FFE743F60400C4F20200006804
:101A80004002002815D5FFE743F60000C4F202002B
:101A9000006800F400310020B0EB514F08D0FFE7A0
:101AA0000498406820B9FFE701208DF8170018E37B
:101AB00070E0FFE704984068B0F5803F09D1FFE788
:101AC00043F60001C4F20201086840F48030086067
:101AD00020E004984068B0F5A02F0DD1FFE743F651
:101AE0000001C4F20201086840F480200860086820
:101AF00040F4803008600CE043F60001C4F20201BB
:101B0000086820F480300860086820F480200860AD
:101B1000FFE7FFE7FFE704984068E8B1FFE7FFF75A
:101B200023FD0390FFE743F60000C4F202000068C3
:101B300000F400310020B0EB514F0CD1FFE7FFF76C
:101B400013FD0399401A652804D3FFE703208DF89D
:101B50001700C6E2E7E71CE0FFF706FD0390FFE78A
:101B600043F60000C4F20200006800F400310020D7
:101B7000B0EB514F0CD0FFE7FFF7F6FC0399401A8A
:101B8000652804D3FFE703208DF81700A9E2E7E7F3
:101B9000FFE7FFE7FFE7049800788007002840F19F
:101BA0009680FFE743F60800C4F20200006810F0D8
:101BB0000C0F13D0FFE743F60800C4F202000068E0
:101BC00000F00C0008282CD1FFE743F60400C4F213
:101BD000020000684002002823D4FFE743F600001B
:101BE000C4F20200006800F002010020B0EB510FC7
:101BF00009D0FFE70498C068012804D0FFE701205E
:101C00008DF817006DE243F60001C4F20201086886
:101C100020F0F800049A126940EAC2000860FFE769
:101C200054E00498C06870B3FFE70021C4F2472174
:101C300001200860FFF798FC0390FFE743F60000DF
:101C4000C4F20200006800F002010020B0EB510F66
:101C50000CD1FFE7FFF788FC0399401A032804D34F
:101C6000FFE703208DF817003BE2E7E743F60001AA
:101C7000C4F20201086820F0F800049A126940EAF0
:101C8000C200086021E00021C4F247210020086062
:101C9000FFF76AFC0390FFE743F60000C4F202007E
:101CA000006800F002010020B0EB510F0CD0FFE7FC
:101CB000FFF75AFC0399401A032804D3FFE70320D7
:101CC0008DF817000DE2E7E7FFE7FFE7FFE704986D
:101CD0000078000700284BD5FFE70498406918B347
:101CE000FFE740F68061C4F2472101200860FFF75A
:101CF0003BFC0390FFE743F67400C4F20200006867
:101D000000F002010020B0EB510F0CD1FFE7FFF70C
:101D10002BFC0399401A032804D3FFE703208DF816
:101D20001700DEE1E7E722E040F68061C4F24721D8
:101D300000200860FFF718FC0390FFE743F67400EB
:101D4000C4F20200006800F002010020B0EB510F65
:101D50000CD0FFE7FFF708FC0399401A032804D3CF
:101D6000FFE703208DF81700BBE1E7E7FFE7FFE798
:101D7000049800784007002840F1CE80FFE700205B
:101D80008DF8070043F64000C4F202000068C0006E
:101D9000002815D4FFE7FFE70020009043F640003D
:101DA000C4F20200016841F080510160006800F057
:101DB000805000900098FFE701208DF80700FFE7B2
:101DC00047F20000C4F200000068C005002822D4D9
:101DD000FFE747F20001C4F20001086840F4807098
:101DE0000860FFF7C1FB0390FFE747F20000C4F271
:101DF00000000068C00500280CD4FFE7FFF7B4FB23
:101E00000399401A032804D3FFE703208DF8170035
:101E100067E1EAE7FFE7FFE704988068012809D156
:101E2000FFE743F67001C4F20201086840F00100C8
:101E300008601FE00498806805280DD1FFE743F68D
:101E40007001C4F20201086840F0040008600868EC
:101E500040F0010008600CE043F67001C4F202019A
:101E6000086820F001000860086820F0040008609D
:101E7000FFE7FFE7FFE704988068F8B1FFE7FFF7A7
:101E800073FB0390FFE743F67000C4F202000068A2
:101E900000F002010020B0EB510F0ED1FFE7FFF779
:101EA00063FB0399401A41F28931884204D3FFE76A
:101EB00003208DF8170014E1E5E71EE0FFF754FB5F
:101EC0000390FFE743F67000C4F20200006800F0E0
:101ED00002010020B0EB510F0ED0FFE7FFF744FBEB
:101EE0000399401A41F28931884204D3FFE7032065
:101EF0008DF81700F5E0E5E7FFE79DF807000128FA
:101F000009D1FFE743F64001C4F20201086820F05E
:101F100080500860FFE7FFE704988069002800F020
:101F2000DC80FFE743F60800C4F20200006800F01E
:101F30000C00082800F08580FFE7049880690228DB
:101F40005CD1FFE76021C4F2472100200860FFF761
:101F50000BFB0390FFE743F60000C4F202000068A9
:101F600000F000710020B0EB516F0CD0FFE7FFF7DD
:101F7000FBFA0399401A032804D3FFE703208DF8E6
:101F80001700AEE0E7E70499C869D1F820C04B6AB2
:101F90008A6A40EA0C0040EA8310D2034FF6FF73CE
:101FA0009A43A2F580321043C96A40EA016043F6C1
:101FB0000401C4F2020108606021C4F2472101203B
:101FC0000860FFF7D1FA0390FFE743F60000C4F280
:101FD0000200006800F000710020B0EB516F0CD1DE
:101FE000FFE7FFF7C1FA0399401A032804D3FFE77C
:101FF00003208DF8170074E0E7E721E06021C4F2C8
:10200000472100200860FFF7AFFA0390FFE743F68F
:102010000000C4F20200006800F000710020B0EB84
:10202000516F0CD0FFE7FFF79FFA0399401A03287E
:1020300004D3FFE703208DF8170052E0E7E7FFE73E
:102040004AE004988069012804D1FFE701208DF857
:10205000170046E043F60400C4F202000068029054
:1020600004988069012831D0FFE7029800F48000CD
:102070000499C969884229D1FFE7029800F03F001E
:102080000499096A884221D1FFE7029847F6C07196
:1020900008400499496AB0EB811F17D1FFE7029805
:1020A00000F440300499896AC9034FF6FF729143E6
:1020B000A1F58031884209D1FFE7029800F07060F5
:1020C0000499C96AB0EB016F04D0FFE701208DF8D5
:1020D000170006E0FFE7FFE7FFE700208DF8170095
:1020E000FFE79DF8170006B080BD000080B582B004
:1020F0000190019800F0C0FC02B080BD81B000905A
:1021000001B0704781B0009001B0704785B0039076
:102110000291FFE7039890F83C00012804D1FFE703
:1021200002208DF813007EE00399012081F83C0025
:10213000FFE7FFE70399022081F83D00039800685C
:10214000406801900398006880680090019820F032
:10215000700001900298016801980843019001986D
:10216000039909684860039800680021C4F20101DE
:1021700088423CD0FFE703980068B0F1804F36D02A
:10218000FFE70398006840F20041C4F20001884272
:102190002DD0FFE70398006840F60001C4F200016B
:1021A000884224D0FFE70398006840F60041C4F25B
:1021B000000188421BD0FFE70398006840F200410D
:1021C000C4F20101884212D0FFE70398006844F28C
:1021D0000001C4F20101884209D0FFE703980068BA
:1021E00041F60001C4F2000188420ED1FFE70098D9
:1021F00020F0800000900298416800980843009009
:102200000098039909688860FFE70399012081F825
:102210003D00FFE70399002081F83C00FFE7002024
:102220008DF81300FFE79DF8130005B0704700001C
:1022300080B582B00090009820B9FFE701208DF8AA
:1022400007003FE0009890F83D0040B9FFE7009993
:10225000002081F83C00009800F038F8FFE7009972
:10226000022081F83D00009951F8040B00F0AAFC0F
:102270000099012081F84600FFE70099012081F8CC
:102280003E00009981F83F00009981F840000099D4
:1022900081F84100FFE7FFE70099012081F8420043
:1022A000009981F84300009981F84400009981F871
:1022B0004500FFE70099012081F83D0000208DF8DE
:1022C0000700FFE79DF8070002B080BD80B586B02B
:1022D0000590059800680021C4F2010188421BD1D5
:1022E000FFE7FFE70020049043F64400C4F2020039
:1022F000016841F001010160006800F001000490F4
:102300000498FFE71920029000221146FFF7C6F952
:102310000298FFF7B9F924E00598006841F200013E
:10232000C4F2000188421BD1FFE7FFE700200390C1
:1023300043F64000C4F20200016841F01001016060
:10234000006800F0100003900398FFE7362001902A
:1023500000221146FFF7A2F90198FFF795F9FFE770
:10236000FFE706B080BD000083B00190019890F8AF
:102370003D00012804D0FFE701208DF80B006AE042
:102380000199022081F83D0001980168C86840F079
:102390000100C860019800680021C4F20101884270
:1023A0003CD0FFE701980068B0F1804F36D0FFE7DE
:1023B0000198006840F20041C4F2000188422DD02B
:1023C000FFE70198006840F60001C4F2000188426E
:1023D00024D0FFE70198006840F60041C4F20001F4
:1023E00088421BD0FFE70198006840F20041C4F228
:1023F0000101884212D0FFE70198006844F2000111
:10240000C4F20101884209D0FFE70198006841F653
:102410000001C4F20001884212D1FFE70198006870
:10242000806800F0070000900098062807D0FFE7BA
:1024300001980168086840F001000860FFE706E0C5
:1024400001980168086840F001000860FFE700207B
:102450008DF80B00FFE79DF80B0003B070470000FC
:1024600080B586B00490039100208DF80B00FFE743
:10247000049890F83C00012804D1FFE702208DF871
:102480001700ABE00499012081F83C00FFE7FFE76B
:102490000499022081F83D0004980068806801904A
:1024A000019820F077000190019820F47F4001907E
:1024B00001980499096888600398006800900028D2
:1024C00072D0FFE7009810286ED0FFE70098202810
:1024D0006AD0FFE70098302866D0FFE700984028D0
:1024E00055D0FFE70098502837D0FFE700986028C4
:1024F00040D0FFE7009870280BD0FFE70098B0F5B8
:10250000805F05D0FFE70098B0F5005F16D052E07D
:1025100055E004980068039B5A689968DB6800F0EE
:1025200029FC0498006880680190019840F07700C9
:102530000190019804990968886040E00498006857
:10254000039B5A689968DB6800F014FC04980168E2
:10255000886840F48040886031E004980068039AFD
:102560005168D26800F036FC04980068502100F0F1
:102570001BFC24E004980068039A5168D26800F0BC
:1025800051FC04980068602100F00EFC17E00498EC
:102590000068039A5168D26800F01CFC0498006837
:1025A000402100F001FC0AE00498006803990968E2
:1025B00000F0FAFB03E001208DF80B00FFE704991F
:1025C000012081F83D00FFE70499002081F83C00DC
:1025D000FFE79DF80B008DF81700FFE79DF8170047
:1025E00006B080BD81B0009001B0704780B584B066
:1025F000039003980068C06802900398006800691F
:1026000001909DF804008007002824D5FFE79DF87D
:102610000800800700281DD5FFE7039801686FF0C8
:102620000200086103990120087703980068806917
:10263000800720B1FFE70398FFF7D4FF06E0039877
:1026400000F0E2F8039800F0E3F8FFE703990020B8
:102650000877FFE7FFE79DF804004007002825D52D
:10266000FFE79DF80800400700281ED5FFE7039804
:1026700001686FF00400086103990220087703984D
:102680000068806910F4407F04D0FFE70398FFF7EB
:10269000A9FF06E0039800F0B7F8039800F0B8F837
:1026A000FFE7039900200877FFE7FFE79DF80400A4
:1026B0000007002824D5FFE79DF808000007002840
:1026C0001DD5FFE7039801686FF0080008610399C2
:1026D0000420087703980068C069800720B1FFE7ED
:1026E0000398FFF77FFF06E0039800F08DF803984A
:1026F00000F08EF8FFE7039900200877FFE7FFE777
:102700009DF80400C006002825D5FFE79DF80800C5
:10271000C00600281ED5FFE7039801686FF010007F
:10272000086103990820087703980068C06910F4CD
:10273000407F04D0FFE70398FFF754FF06E00398BB
:1027400000F062F8039800F063F8FFE703990020B7
:102750000877FFE7FFE79DF80400C00778B1FFE7BF
:102760009DF80800C00748B1FFE7039801686FF0C3
:1027700001000861039800F04FF8FFE7FFE79DF8BC
:1027800004000006002810D5FFE79DF808000006A9
:10279000002809D5FFE7039801686FF08000086101
:1027A0000398FFF7ABFCFFE7FFE79DF80400400646
:1027B000002810D5FFE79DF808004006002809D53D
:1027C000FFE7039801686FF040000861039800F08C
:1027D0003FF8FFE7FFE79DF804008006002810D5CA
:1027E000FFE79DF808008006002809D5FFE7039859
:1027F00001686FF0200008610398FFF783FCFFE792
:10280000FFE704B080BD000081B0009001B07047C8
:1028100081B0009001B0704780B582B001900198FE
:1028200000680021C4F20101884203D1FFE700F0F3
:10283000F1FDFFE70198006841F20001C4F20001D8
:10284000884203D1FFE700F039FEFFE702B080BD08
:1028500081B0009001B07047FFE7FEE780B582B01D
:1028600040F2BC00C2F20000019046F20041C4F206
:10287000000101600321416000218160C1604FF4CB
:10288000102202614FF40012426101760122427669
:102890008176C17601774177FEF7A8FA18B1FFE794
:1028A000FDF7F0FDFFE702B080BD000083B0FFE759
:1028B0000020029043F63000C4F20200016841F0AB
:1028C00001010160006800F0010002900298FFE73A
:1028D000FFE70020019043F63000C4F202000168D7
:1028E00041F008010160006800F0080001900198C3
:1028F000FFE7FFE70020009043F63000C4F202003B
:10290000016841F080010160006800F080000090E3
:102910000098FFE703B0704780B588B000210091B0
:1029200007910691059104910391029140F2E40010
:10293000C2F2000001900022C4F2010202605322A0
:102940004260816040F2E732C260016141618161B1
:10295000FFF76EFC18B1FFE7FDF794FDFFE74FF4BA
:102960008050049040F2E400C2F2000004A9FFF796
:1029700077FD18B1FFE7FDF785FDFFE70020029026
:10298000039040F2E400C2F2000002A9FFF7BEFB90
:1029900018B1FFE7FDF776FDFFE708B080BD000046
:1029A00080B582B000210191009140F22C10C2F25A
:1029B000000041F20002C4F20002026040F247321D
:1029C0004260816042F20F72C2608161FFF730FCA9
:1029D00018B1FFE7FDF756FDFFE7002000900190DA
:1029E00040F22C10C2F200006946FFF78FFB18B1CD
:1029F000FFE7FDF747FDFFE702B080BDFFE7FEE719
:102A0000FFE7FEE788B0079006910592079800F06F
:102A1000070004900498C0F10700052803D3FFE7DE
:102A20000420019004E00498C0F107000190FFE742
:102A30000198039004980430062803D8FFE700208B
:102A4000009003E0049803380090FFE7009802909C
:102A500006980399012202FA01F101390840029B0C
:102A6000984005999A40013A1140084308B07047D0
:102A7000704700007047000080B582B00090009859
:102A80000138B0F1807F03D3FFE70120019019E006
:102A9000009801384EF21401CEF2000108604FF0A8
:102AA000FF300F2100F006FC4EF21801CEF20001BB
:102AB000002008604EF21002CEF2000207211160E1
:102AC0000190FFE7019802B080BD000080B5FEF7DD
:102AD00051FD80BD80B594B008A83021FDF750FCB1
:102AE000002007900690059004900390FFE70020D7
:102AF000029043F64000C4F20200016841F08051A8
:102B00000160006800F0805002900298FFE7FFE744
:102B10000020019047F20000C4F20000016841F477
:102B200040410160006800F4404001900198FFE7D7
:102B3000012008904FF48030099002200E904FF44D
:102B400080010F9106211091A8211191129004206B
:102B5000139008A8FEF76AFF18B1FFE7FDF792FC93
:102B6000FFE70F20039002200490002005904FF40F
:102B7000A05006904FF48050079003A80521FEF75F
:102B8000AFFD18B1FFE7FDF77DFCFFE714B080BD96
:102B90004EF68851CEF20001086840F470000860DB
:102BA0007047000080B540F2E400C2F20000FFF779
:102BB0001DFD80BD80B540F22C10C2F20000FFF771
:102BC00015FD80BD83B002900191029800680090CD
:102BD00002980021C4F20101884225D0FFE7029843
:102BE000B0F1804F20D0FFE7029840F20041C4F2DC
:102BF0000001884218D0FFE7029840F60001C4F2B5
:102C00000001884210D0FFE7029840F60041C4F26C
:102C10000001884208D0FFE7029840F20041C4F268
:102C2000010188420AD1FFE7009820F0700000906F
:102C300001984168009808430090FFE7029800213E
:102C4000C4F20101884255D0FFE70298B0F1804FED
:102C500050D0FFE7029840F20041C4F200018842E0
:102C600048D0FFE7029840F60001C4F20001884214
:102C700040D0FFE7029840F60041C4F200018842CC
:102C800038D0FFE7029840F20041C4F201018842C7
:102C900030D0FFE7029844F20001C4F201018842FB
:102CA00028D0FFE7029844F20041C4F201018842B3
:102CB00020D0FFE7029844F60001C4F201018842E7
:102CC00018D0FFE7029841F60001C4F200018842E3
:102CD00010D0FFE7029841F60041C4F2000188429B
:102CE00008D0FFE7029842F20001C4F200018842D6
:102CF0000AD1FFE7009820F4407000900198C16865
:102D0000009808430090FFE7009820F080000199A8
:102D1000496908430090009802990860019880680A
:102D20000299C8620198006802998862029800219D
:102D3000C4F20101884208D0FFE7029840F2004146
:102D4000C4F20101884205D1FFE7019800690299A8
:102D50000863FFE702990120486102980069C007F3
:102D600030B1FFE70299086920F001000861FFE730
:102D700003B0704785B004900391029201930498C8
:102D800080680090009820F47F400090039802999A
:102D9000019A41EA022101430098084300900098FB
:102DA0000499886005B0704783B002900191029841
:102DB00080680090009820F07000009001980099C1
:102DC000084340F00700009000980299886003B023
:102DD0007047000085B00490039102920498006A45
:102DE00000900499086A20F0010008620498806944
:102DF0000190019820F0F00001900299019840EABA
:102E000001100190009820F00A00009003990098AA
:102E10000843009001980499886100980499086219
:102E200005B0704785B00490039102920498006A3F
:102E300000900499086A20F01000086204988069E4
:102E40000190019820F4704001900299019840EAA5
:102E500001300190009820F0A000009003990098A4
:102E600040EA011000900198049988610098049943
:102E7000086205B070470000FFE7FEE780B500F08C
:102E800059FA00F05FFA80BD80B582B001900198D8
:102E900000909FED030A00F0C7F9009802B080BDD2
:102EA0000000104284B003908DED020ACDED010ABE
:102EB00003980090016A81629DED020A9DED011A5E
:102EC00030EE410A80ED080A90ED081A90ED090AEB
:102ED00030EE010A80ED090A90ED031A90ED090A1F
:102EE000B4EE410AF1EE10FA0DDCFFE7009890ED28
:102EF000031A90ED090AB1EE411AB4EE410AF1EE5F
:102F000010FA04DAFFE70099C8684862FFE7009802
:102F100090ED000A90ED081A20EE010A80ED0B0AF0
:102F200090ED020A90ED081A90ED0A2A31EE421A4D
:102F300020EE010A80ED0D0A90ED010A90ED091ACC
:102F400020EE010A80ED0C0A90ED0B0A90ED0C1AB0
:102F500090ED0D2A30EE020A30EE010A80ED050AEE
:102F600090ED041A90ED050AB4EE410AF1EE10FA64
:102F70000DDCFFE7009890ED041A90ED050AB1EE24
:102F8000411AB4EE410AF1EE10FA04DAFFE70099B3
:102F900008694861FFE700989DED020A9FED071A56
:102FA00080EE010A80ED060A9DED010A80EE010A1D
:102FB00080ED070A90ED050A04B07047000010424A
:102FC00086B005908DED040ACDED030A8DED021A51
:102FD000CDED011A8DED002A059804990160039941
:102FE0004160029981600199C160009901610021ED
:102FF000C16181618162416201624161016341633A
:10300000C16206B07047000086B00590049103923B
:1030100002938DED010ACDED000A9DED000A9DEDB4
:10302000011A30EE410A02980399401A02EE100A82
:10303000B8EEC22A80EE020A0498401A02EE100A84
:10304000B8EEC22A20EE020A30EE010A06B070473E
:1030500085B003AA009202460098049280ED000A0F
:10306000029190ED000ABDEEC00A10EE100AADF814
:1030700006009DF8070002990870BDF80600029945
:10308000487005B07047000080B58AB0099008917B
:103090000998059008990978ADF81E10BDF81E1022
:1030A0000902ADF81E1008994A78BDF81E101144A7
:1030B000ADF81E10BDF81E100022019241F6FF73FC
:1030C00002939FED270A8DED040ADFED260ACDED70
:1030D000030AFFF799FF019A029BDDED030A0598A9
:1030E000B0EE401A9DED040A80ED031A089991F89C
:1030F00002C0C97841EA0C21ADF81C10BDF91C10C2
:1031000001EE101AB8EEC11A90ED002A81EE021AF3
:1031100080ED061ABDF81C10818408990979ADF874
:103120001A10BDF81A100902ADF81A10089991F892
:1031300005C0BDF81A106144ADF81A10BDF91A1097
:10314000FFF762FF059880ED070A0899897900EE7C
:10315000101AB8EE400A80ED080A0AB080BD00BF20
:10316000000000000000B44383B002900191029877
:10317000009090ED030A90ED041A30EE410AB5EE8E
:10318000400AF1EE10FA0ADBFFE7009890ED030A1F
:1031900090ED041A30EE410A80ED050A0DE000982A
:1031A00090ED030A90ED041A30EE410A9FED041AE7
:1031B00030EE010A80ED050AFFE703B0704700BF5B
:1031C0000000B44383B0029001910298009090ED0A
:1031D000001A90ED050A20EE010A80ED020A90ED3A
:1031E000010A90ED021A30EE010A80ED010AC16871
:1031F000016190ED010A9FED0A1AB4EE410AF1EE69
:1032000010FA0ADDFFE7009890ED010A9FED051A1C
:1032100030EE010A80ED010AFFE703B0704700BFFE
:103220000000B4430000B4C382B001908DED000AE9
:10323000019800990160002141608160C1600161D5
:10324000416181614AF61461C3F64771C161002191
:10325000C4F2C811016202B07047000081B0009052
:10326000009890ED001A90ED060A20EE010A01B0D8
:103270007047000081B08DF803009DF9030000281D
:103280000ED4FFE79DF9031001F01F0201209040CA
:103290004A094EF20011CEF2000141F82200FFE788
:1032A00001B070474EF60C50CEF200000068C0F33B
:1032B0000220704782B08DF8070000919DF9070049
:1032C00000280AD4FFE7009800019DF907104EF28C
:1032D0000042CEF2000288540BE0009800019DF8F5
:1032E000071001F00F014EF61452CEF2000288547E
:1032F000FFE702B07047000083B00290029800F030
:10330000070000904EF60C51CEF2000108680190C3
:1033100001984FF6FF02104001900198009A40EA90
:1033200002200022C0F2FA52104301900198086076
:1033300003B0704780B540F27410C2F20000FFF78E
:10334000A3FD80BD80B540F20000C2F2000090ED08
:10335000000A40F28000C2F20000D0ED000A40F204
:103360007C00C2F2000090ED001A40F27800C2F238
:103370000000D0ED001A40F20400C2F2000090ED0F
:10338000002A40F2B010C2F20000FFF719FE80BD23
:1033900080B58CB001210A91002002900390049026
:1033A0000590089009910690079040F2A811C2F28A
:1033B0000001087048708870C87008714871887181
:1033C000C87140F2A401C2F200014FF400720A6019
:1033D0008860C86008220A61087540F2BC00C2F229
:1033E0000000019002A9FDF727F90198FDF762FEA0
:1033F00001980221FDF74AF840F2E400C2F2000011
:10340000FEF7B2FF40F22C10C2F20000FEF7ACFF54
:103410000CB080BD80B584B040F27410C2F20000E0
:10342000029040F2A011C2F200010091FFF72CFEC1
:1034300000990298FFF798FE00990298FFF7C2FEE4
:10344000029840F20801C2F2000191ED000A8DEDF0
:10345000010AFFF703FFF0EE400A9DED010A40F27A
:10346000B010C2F20000FFF71DFD029840F29C115F
:10347000C2F2000181ED000A91ED000A40F2E8116C
:10348000C2F200010391FFF7E3FD0398017840F2D7
:10349000A812C2F2000291714078D07140F2BC00D3
:1034A000C2F2000040F2A401C2F2000140F2840323
:1034B000C2F20003FDF714F804B080BD70470000AD
:1034C00080B582B000200190FEF762F8FFF702FBA2
:1034D000FFF7ECF9FFF7C2F9FFF71EFAFFF760FA02
:1034E000FFF756FFFFE7FEE7F1EE100A4FF6FF7118
:1034F000C0F2C03120EA010040F04070E1EE100A55
:1035000070470000000000000000010203040607ED
:1035100008090000383500080000002018000000ED
:10352000E80100085035000818000020D807000006
:103530000402000849F9FFFF0000003F0090194510
:10354000000007450024F400010000001000000006
:04000005080001AD41
:00000001FF
